:100000000C94DB060C943F070C943F070C943F07BD
:100010000C943F070C943F070C943F070C943F0748
:100020000C943F070C943F070C94941F0C943F07CB
:100030000C943F070C943F070C943F070C943F0728
:100040000C940C280C943F070C943F070C943F072A
:100050000C947F280C942C210C943F070C943F07A0
:100060000C943F070C9487210C943F070C943F0796
:100070000C943F070C943F070C943F070C943F07E8
:100080000C945E3F0C943F070C943F070C943F0781
:100090000C943F070C943F07501EEE1DA51E211E19
:1000A000A51EB61D041DA51EA91DD51D7B1E7E1EE9
:1000B0004F6E6C696E652E0A000A002C206368651D
:1000C000636B207261746520257520487A00257362
:1000D0002025732C206368616E6E656C2025750089
:1000E0004D414320616464726573732025783A251D
:1000F000783A25783A25783A25783A25783A257855
:100100003A25780A0D00496E76616C696420454590
:1001100050524F4D2073657474696E677320646527
:100120007465637465642E20526577726974696EB4
:100130006720776974682064656661756C742076E1
:10014000616C7565732E0A000A0A2A2A2A2A2A2A4D
:100150002A426F6F74696E672025732A2A2A2A2A19
:100160002A2A0A00000000CDAB1A021213FFFE1467
:1001700015162563256325632E256364426D0025CE
:1001800063206973206E6F7420612076616C6964EE
:10019000206F7074696F6E21206820666F72206D09
:1001A000656E750A0D00526573657474696E672E0D
:1001B0002E2E0A0D00456E746572696E67204446E6
:1001C00055204D6F64652E2E2E0A0D00446F6E650E
:1001D0002E0A000A003A0023002025643A20253028
:1001E0003264644220000A002E00456E6572677911
:1001F000205363616E3A0A0020202A204E657665FE
:10020000722D7573656420737461636B203E2025C5
:10021000642062797465730A0D00616374697665A0
:100220000A0D006E6F74200020202A20436F6E6636
:10023000696775726174696F6E3A2025642C205568
:1002400053423C2D3E455448206973200020202A0B
:100250002043757272656E742F4C6173742F536DE9
:10026000616C6C65737420525353493A2025642F96
:1002700025642F2D2D64426D0A0D0020202A204375
:10028000757272656E742F4C6173742F536D616C4F
:100290006C65737420525353493A2025642F2564AA
:1002A0002F256464426D0A0D000A0D0020202A20CB
:1002B0004F70657261746573206F6E206368616E44
:1002C0006E656C202564207769746820545820700E
:1002D0006F776572200020202A203830322E313589
:1002E0002E34204555492D36343A20253032783A7F
:1002F000253032783A253032783A253032783A252E
:100300003032783A253032783A253032783A253012
:1003100032780A0020202A2055534220457468650F
:10032000726E6574204D41433A20253032783A256B
:100330003032783A253032783A253032783A2530E2
:1003400032783A253032780A004F7574707574200F
:100350005253323332206465627567207374726958
:100360006E67730A0D006E6F7420004F75747075A0
:100370007420726177203830322E31352E34206669
:1003800072616D65730A0D20202A2057696C6C20FC
:10039000006E6F7420006465636F6D7072657373B7
:1003A00020366C6F7770616E20686561646572736A
:1003B0000A0D20202A2057696C6C20006E6F742073
:1003C000006368616E6765206C696E6B2D6C6F638E
:1003D000616C2061646472657373657320696E7308
:1003E000696465204950206D657373616765730AA0
:1003F0000D20202A2057696C6C20006E6F7420003D
:1004000073656E642064617461206F76657220523A
:10041000460A0D20202A2057696C6C20006E6F74EC
:10042000200043757272656E746C79204A61636B4B
:100430006461773A0A0D20202A2057696C6C2000ED
:100440000A53656C656374207472616E736D6974B0
:1004500020706F7765722028303D2B3364426D2009
:1004600031353D2D31372E3264426D29205B2564B4
:100470005D3A20000A53656C656374203830322E73
:1004800031352E34204368616E6E656C20696E20B4
:1004900072616E67652031312D3236205B25645DD7
:1004A0003A20004A61636B646177206E6F77206F3A
:1004B00075747075747320646562756720737472E7
:1004C000696E67730A0D004A61636B64617720642B
:1004D0006F6573206E6F74206F757470757420640F
:1004E0006562756720737472696E67730A0D004ADE
:1004F00061636B646177206E6F77206361707475E0
:1005000072657320726177206672616D65730A0D82
:10051000004A61636B64617720646F6573206E6F5E
:1005200074206361707475726520726177206672E1
:10053000616D65730A0D004A61636B646177206EBB
:100540006F7720706572666F726D7320366C6F778F
:1005500070616E207472616E736C6174696F6E731A
:100560000A0D004A61636B64617720646F657320D4
:100570006E6F7420706572666F726D20366C6F7767
:1005800070616E207472616E736C6174696F6E0A53
:100590000D004A61636B646177206E6F7720696E2E
:1005A000206E6574776F726B206D6F64650A0D0045
:1005B000507265737320616E79206B657920746F5A
:1005C0002073746F702E0A0D002A2A2A2A2A2A2ADA
:1005D0002A2A0A0D002A2A2A2A2A2A2A2A2A6F6E59
:1005E000206368616E6E656C2025326420776974C3
:1005F0006820706F77657220002A2A2A2A2A2A2A00
:100600002A4A61636B64617720697320636F6E743B
:10061000696E756F75736C792062726F6164636166
:100620007374696E672A2A2A2A2A2A2A0A0D002A3E
:100630002A2A2A2A5741524E494E4720526164695C
:100640006F206D6179206F766572686561742069CD
:100650006E2074686973206D6F64652A2A2A2A2ABD
:100660002A2A0A0D004A61636B646177206E6F77F6
:10067000206265686176696E6720697473656C666F
:100680002E0A0D004A61636B646177206E6F7720DC
:10069000696E20736E6966666572206D6F64650AA7
:1006A0000D004272696E67696E6720696E746572CB
:1006B000666163652075700A0D004272696E676934
:1006C0006E6720696E7465726661636520646F771A
:1006D0006E0A0D00082008000A0D5472616E736DD9
:1006E000697420706F77657220756E6368616E67DC
:1006F00065642E0A0D000A0D5472616E736D697483
:1007000020706F776572206368616E67656420741E
:100710006F2025642E0A0D0020000A0D496E7661B7
:100720006C696420696E7075740A0D0008200800F9
:100730000A0D4368616E6E656C20756E6368616E4C
:100740006765642E0A0D000A0D4368616E6E656C64
:10075000206368616E67656420746F2025642E0ACB
:100760000D000A0D496E76616C696420696E7075C2
:10077000740A0D002A2A2A2A2A2A2A2A2A2A2A2AF6
:100780002A2A2A2A2A2A2A2A2A2A2A2A2A2A2A2AC9
:100790002A2A2A2A2A2A2A0A0D002A207072657318
:1007A00073696E6720796F75722063686F6963651E
:1007B000206F6E206B6579626F6172642A0A0D008A
:1007C0002A204D616B652073656C656374696F6E7B
:1007D00020617420616E792074696D6520627920D2
:1007E00020202A0A0D002A2020202020202020203E
:1007F00020202020202020202020202020202020F9
:1008000020202020202020202A0A0D002A202068D5
:100810002C3F2020202020205072696E74207468A4
:100820006973206D656E75202020202020202A0A03
:100830000D002A2020522020202020202020526538
:10084000736574202876696120574454292020203C
:10085000202020202A0A0D002A20204420202020A9
:100860002020202053776974636820746F204446E9
:1008700055206D6F6465202020202A0A0D002A2053
:1008800020652020202020202020456E6572677979
:10089000205363616E202020202020202020202053
:1008A0002A0A0D002A20205320202020202020204A
:1008B000456E61626C6520736E65657A6572206D48
:1008C0006F64652020202A0A0D002A202064202041
:1008D000202020202020546F67676C6520525332FF
:1008E0003332206F75747075742020202A0A0D0031
:1008F0002A2020722020202020202020546F67678B
:100900006C6520726177206D6F6465202020202047
:1009100020202A0A0D002A202036202020202020F6
:100920002020546F67676C6520366C6F7770616E3E
:1009300020202020202020202A0A0D002A2020709C
:100940002020202020202020536574205246207033
:100950006F776572202020202020202020202A0A66
:100960000D002A20206320202020202020205365F5
:1009700074205246206368616E6E656C20202020D2
:10098000202020202A0A0D002A20206E202020204E
:100990002020202053657420746F206E6574776F5B
:1009A000726B206D6F64652020202A0A0D002A20BA
:1009B0002073202020202020202053657420746F75
:1009C00020736E6966666572206D6F6465202020F5
:1009D0002A0A0D002A20206D2020202020202020FF
:1009E0005072696E742063757272656E74206D6FDB
:1009F0006465202020202A0A0D00202020202020AD
:100A000020205B4275696C74204E6F762020352063
:100A1000323031365D2020202020200A0D000A0DC2
:100A20002A2A2A2A2A2A2A2A2A2A2A204A61636B5F
:100A3000646177204D656E75202A2A2A2A2A2A2A7F
:100A40002A2A2A0A0D003036313631353232323216
:100A5000323232323232333232313130303132337B
:100A60003435373932377261776D6F6465004174A0
:100A70006D656C0000000000010101000201010031
:100A8000030101000401010006010100070101004A
:100A90000A0101000B0101000C0101000D01010020
:100AA0000E010100110101001401010016010100F5
:100AB0000202010001010200020102000301020022
:100AC00004010200050102001B02010001010101F5
:100AD00002010101030101010401010105010101FC
:100AE000010102010201020103010201000101FDF5
:100AF000020101FD010101FD060101FD030101FDEE
:100B0000040101FD0A004D554C5449434153542002
:100B10000042524F414443415354200044495245FE
:100B2000435445442000414C4C5F4D554C5449437F
:100B3000415354200050524F4D495343554F555344
:100B400020006364635F65636D3A20526563656985
:100B5000766564205345545F45544845524E45548C
:100B60005F5041434B45545F46494C5445523A20EF
:100B7000283078253034582920000403090409025C
:100B80008A000482098032080B00020206000D0967
:100B9000040000000206000D0524001001052406D3
:100BA00000010D240F0400000000120500000009E0
:100BB000040100020A00000007058102400001074D
:100BC000050202400001080B0202020201100904A2
:100BD0000200010202011005240010010524010396
:100BE00003042402020524060203070584032000EF
:100BF000FF09040300020A00000007058502200027
:100C000001070506022000010902400002020880D7
:100C10003209040000000206000D05240010010541
:100C2000240600010D240F0400000000120500003E
:100C30000009040100020A000000070581024000CB
:100C4000010705020240000109022000010307809C
:100C5000320904000002020C070C07058303080098
:100C600001070581024000010902430002010680DC
:100C70003209040000010202FF0B052400100105E7
:100C80002401000004240200052406000107058356
:100C90000308000109040100020A000000070581A1
:100CA000024000010705020240000109028D000414
:100CB00081058032080B00020202FF0B09040000CC
:100CC000010202FF0B0524001001052401000004AD
:100CD000240200052406000107058303080001091A
:100CE000040100020A00000007058102400001071C
:100CF000050202400001080B020202020110090471
:100D00000200010202011005240010010524010364
:100D100003042402020524060203070584032000BD
:100D2000FF09040300020A000000070585022000F5
:100D3000010705060220000112010002EF02014036
:100D4000EB032120001001020301814465627567F5
:100D500020506F7274004344432D45434D2B44454E
:100D6000425547004344432D45434D004344432DE2
:100D700045454D00524E44495300524E4449532B71
:100D80004465627567004A61636B64617720364C25
:100D90006F5750414E2041646170746F720041740E
:100DA0006D656C0030313233343536373839616235
:100DB00063646566000011241FBECFEFD0E2DEBF82
:100DC000CDBF04B603FE36C014BE80913C1A90918C
:100DD0003D1AA0913E1AB0913F1A8A3C9C4AA24407
:100DE000BC4DA1F410923C1A10923D1A10923E1A7A
:100DF00010923F1A88E10FB6F89480936000109229
:100E000060000FBEE0E0F0EF099520C080913C1A31
:100E100090913D1AA0913E1AB0913F1A0196A11DE2
:100E2000B11D80933C1A90933D1AA0933E1AB09343
:100E30003F1A0CC086EC9CEAA2E4BCED80933C1AFD
:100E400090933D1AA0933E1AB0933F1A12E0A0E08F
:100E5000B1E0E2E1F1E900E00BBF02C007900D92C2
:100E6000A838B107D9F71AE1A8E8B2E001C01D928D
:100E7000AC33B107E1F70E94CF420C9487480C9441
:100E800000001F93CF93DF93CDB7DEB728970FB63F
:100E9000F894DEBF0FBECDBF85E090E00E948D4785
:100EA000182F9095911709F433C0EAE6F1E0DE01BE
:100EB0001196CD0124912D93319621E0E237F2076E
:100EC000C9F748E050E067E070E00E949347E7E62A
:100ED000F1E06591749183E090E00E94AB47E5E614
:100EE000F1E06591749181E090E00E94AB47E4E607
:100EF000F1E0649180E090E00E949D47E9E6F1E036
:100F00001491712F7095612F85E090E00E94AB479E
:100F1000812F28960FB6F894DEBF0FBECDBFDF91AC
:100F2000CF911F91089580E091E00E94B82B80E15D
:100F300091E00E94B82B88E091E00C94B82B0F93BD
:100F40001F93CF93DF930E942009892BB1F088E093
:100F500091E00E94D62BEC01009779F10E94600984
:100F6000998388830E945B099B838A83CE010496C0
:100F70000E949C088CABCE0122C080E191E00E94CF
:100F8000D62B8C010097C9F080E091E00E94D62B0F
:100F9000EC01F80191838083009779F002960E941A
:100FA000AE0899838883BE016E547F4FCE018E5761
:100FB0009F4F0E94030AC80102C080E090E0DF91C9
:100FC000CF911F910F910895FC0180819181BC0107
:100FD0006E547F4F8E579F4F0C94030ACF93DF932D
:100FE000EC01BC0180E191E00E94202C892B51F0A2
:100FF0006881798180E091E00E94FB2BBE0180E155
:1010000091E00AC0BE0188E091E00E94202C892B6B
:1010100039F0BE0188E091E0DF91CF910C94FB2B79
:10102000DF91CF9108950F931F93CF93DF93EC013E
:10103000BC0180E191E00E94202C892BA9F009904D
:10104000D881C02DFE0161917191CF010E94BF092D
:10105000BE016E547F4FCE018E579F4FDF91CF91CF
:101060001F910F910C94140ABE0188E091E00E9438
:10107000202C892BD1F00E94AC09688179818A816A
:101080009B810E94BF098CA990E00E9475090CA960
:1010900010E00E941A09BE016C5F7F4FA801DF912A
:1010A000CF911F910F910C94FA44DF91CF911F9132
:1010B0000F910895CF93DF93EC01BC0180E191E0A3
:1010C0000E94202C892B21F08881998102960CC0E6
:1010D000BE0188E091E00E94202C892B19F08A81C2
:1010E0009B8102C080E090E0DF91CF910895DC0108
:1010F000ED91FC9180819181089528E0629FB0017B
:1011000011246E507109FC0180819181860F971F17
:101110000895FC0120818181E22FF82FE60FF11D57
:10112000E60FF11DEE57FF4F8081918108950895DC
:1011300080E38093580A0895CF93DF936091580A13
:1011400070E0C0E3D0E0C61BD70B6A55764FAE0106
:101150000E94FA44CE01DF91CF910895CF92DF92A1
:10116000EF92FF920F931F93CF93DF937C01C09078
:101170005B0AD0905C0A6091580A70E0E601E09644
:10118000C61BD70BC138D105D8F400E310E0061B0D
:10119000170B6A55764FA8010E94FA446091A40982
:1011A0007091A5098091590A90915A0A680F791F88
:1011B000A601C701800F911F0E94FA44CE0102C010
:1011C00080E090E0DF91CF911F910F91FF90EF9021
:1011D000DF90CF9008959091580A980F9093580AF5
:1011E000089540915B0A50915C0A4817590798F09E
:1011F0002091590A30915A0A280F391F30935A0A00
:101200002093590A481B590B50935C0A40935B0A80
:1012100081E090E0089580E090E0089590935C0A6A
:1012200080935B0A08958091590A90915A0A8A52D4
:10123000964F08958091580A90E08A55964F0895E8
:1012400081E090E02091A4093091A509265D394004
:1012500011F480E090E008950E942009892B61F04C
:101260006091A4097091A50940915B0A50915C0AB4
:1012700086ED99E00C94FA442091590A30915A0A6B
:1012800021153105B9F080915B0A90915C0AC096F6
:10129000E6EDF9E0AF01465A59404817590734F4D2
:1012A000DF01A20FB31F4C914193F4CF10925A0A61
:1012B0001092590A08958091A4099091A509089562
:1012C00080915B0A90915C0A08959091580A80E39E
:1012D000891B089520E38091580A281B80915B0A9E
:1012E00090915C0A820F911D08951F93CF93DF9315
:1012F000EC011091580A812F90E08C179D076CF03B
:101300000E946A098C0F9D1F8138910530F41C1BC7
:101310001093580A81E090E002C080E090E0DF91F5
:10132000CF911F910895CF93DF93ECECF1E11192EF
:10133000119281E1EC3FF807D1F7CCEAD1E16CE9F9
:1013400071E0CE010E949628289681E1CC3CD80716
:10135000B1F7DF91CF91089510925A0A1092590A6D
:1013600010925C0A10925B0A80E38093580A86ED23
:1013700099E09093A5098093A4090C949309EF92A6
:10138000FF920F931F93CF93DF9300D0CDB7DEB7BB
:101390008C0169837A830E94AC096981E62E7A8187
:1013A000F72E81E8E816F10418F080E8E82EF12C19
:1013B000A701B8018091A4099091A5090E94FA445F
:1013C000F0925C0AE0925B0AC7010F900F90DF91E8
:1013D000CF911F910F91FF90EF9008950F931F935E
:1013E000CF93DF938C01EB010E94AC091093A50908
:1013F0000093A409D0935C0AC0935B0ADF91CF915C
:101400001F910F91089520E3ECECF1E1DC010190D4
:101410000D922A95E1F780E2ECEAF1E1DB0101901F
:101420000D928A95E1F7089520E3FC01ACECB1E15F
:1014300001900D922A95E1F780E2FB01ACEAB1E15F
:1014400001900D928A95E1F70895E82FF0E0EE0FF4
:10145000FF1FE453FE4E7183608381E090E00895A6
:10146000E82FF0E0EE0FFF1FE453FE4E80819181E4
:10147000089528E0829FC001112484519F4E0E944C
:10148000962881E090E0089528E0829FC001112411
:1014900084519F4E08950E94C7258F70863028F092
:1014A0004DE28F3019F421E302C04BE220E390E0DB
:1014B000FC01EA5AF54F6491FC01EA5BF54F849117
:1014C000203319F4542F40E201C051E3282F332771
:1014D00027FD30953F938F93862F992787FD909511
:1014E0009F936F93852F992787FD90959F935F9387
:1014F0001F924F9382E791E09F938F930E945645EE
:101500008DB79EB70A960FB6F8949EBF0FBE8DBFDB
:1015100008958EE19AE09F938F930E9456458AEF3B
:1015200099E09F938F930E94564584ED99E09F9395
:101530008F930E9456458EEA99E09F938F930E9465
:10154000564588E899E09F938F930E94564582E61E
:1015500099E09F938F930E9456458CE399E09F9367
:101560008F930E94564586E199E09F938F930E9446
:10157000564580EF98E09F938F930E9456458AECE2
:1015800098E09F938F930E94564584EA98E09F933A
:101590008F930E9456458EE798E09F938F930E9409
:1015A00056450E9444222DB73EB7285E3F4F0FB6E6
:1015B000F8943EBF0FBE2DBF882341F088E598E028
:1015C0009F938F930E9456450F900F9082E398E06F
:1015D0009F938F930E9456458CE098E09F938F9342
:1015E0000E94564586EE97E09F938F930E94564542
:1015F00080EC97E09F938F930E9456458AE997E08D
:101600009F938F930E94564584E797E09F938F9313
:101610000E9456458DB79EB70C960FB6F8949EBFA4
:101620000FBE8DBF08952F923F924F925F926F929F
:101630007F928F929F92AF92BF92CF92DF92EF9262
:10164000FF920F931F93CF93DF93CDB7DEB7E5974C
:101650000FB6F894DEBF0FBECDBF182F2091610AE0
:101660003091620A21303105D1F58D3039F00CF01E
:1016700043C0883049F18A3009F04CC4E091600AD7
:10168000EE23F9F0F0E0E35AF54F10828DE59AE091
:101690000E94AF448C010B97409718F082E697E0C8
:1016A0007BC0802F0E942C241F930F9387E497E028
:1016B0009F938F930E9456450F900F900F900F901D
:1016C00071C080E397E068C08091600A882309F4C4
:1016D00021C481508093600A8CE297E072C022306E
:1016E000310509F075C08D3051F134F4883009F4BA
:1016F0005EC08A3021F10EC480ED810F8A3008F07F
:1017000009C48091600A6091381A7091391A823048
:1017100028F087E090E00E942445FCC3812F9927A0
:1017200087FD90950E9424458091600AE82FF0E0A3
:10173000E35AF54F10838F5F8093600AEBC3E0910B
:10174000600AEE2339F1F0E0E35AF54F10828DE59F
:101750009AE00E94AF448C018031910518F08AE133
:1017600097E01AC088E197E09F938F930E945645B7
:10177000802F0E94C5251F930F9386EF96E09F93BD
:101780008F930E9456450F900F900F900F900F90DF
:101790000F9008C088ED96E09F938F930E94564566
:1017A0000F900F901092620A1092610AB3C3809159
:1017B000600A882309F4AEC381508093600A84EDE7
:1017C00096E09F938F930E9456450F900F90A2C36F
:1017D00080912C1A85FD96C0133509F49FC0C4F57D
:1017E000163309F4D4C0B4F41D3009F493C324F4BF
:1017F0001A3009F48FC37EC31B3209F479C01D323D
:1018000009F078C38AEB96E09F938F930E94564528
:1018100080E075C01F3309F468C024F41D3309F457
:1018200067C068C3143409F425C3123509F062C3D4
:1018300086EA91E09F938F930E9456450E944A3D0D
:101840005F9A5D98779876980F900F908AE033C3EF
:101850001D3609F4F3C0D4F4143609F4C4C084F47A
:10186000133609F047C30E9429241F928F9384E7FF
:1018700094E09F938F930E94564581E090E0D7C0FB
:10188000153609F418C2183681F134C3103709F43B
:10189000C2C0A4F41E3609F02DC382E995E09F93DF
:1018A0008F930E94564580912C1A826084608093A9
:1018B0002C1A0E9429240E942C2487CF123709F465
:1018C0007CC0133709F016C384E896E09F938F938A
:1018D0000E94564580912C1A8D7F8B7F80932C1A05
:1018E0000E9429240E94402470CF0E94890A12C3BA
:1018F00082EA96E09F938F930E94564581E00E9472
:10190000EB1063CF0E94D02385E696E09F938F93E0
:101910000E94564580912C1A8F7D7AC00E94C7255F
:10192000833040F48FE296E09F938F930E94564558
:101930000F900F900E94D02689EF95E09F938F9390
:101940000E9456450E9429241F928F9385ED95E0B1
:101950009F938F930E9456450E944B0A89EC95E015
:101960009F938F930E94564580EB95E09F938F93B2
:101970000E9456450E942C2280912C1A80628093EE
:101980002C1A0FB6F894DEBF0FBECDBFC3C280FFC6
:101990000AC083E695E09F938F930E9456458091FD
:1019A0002C1A8E7F35C087E395E09F938F930E941A
:1019B000564580912C1A81602BC083FF0AC081E1BB
:1019C00095E09F938F930E94564580912C1A877FB4
:1019D0001FC08FEE94E09F938F930E945645809195
:1019E0002C1A886015C084FF0AC087EC94E09F938E
:1019F0008F930E94564580912C1A8F7E09C083EAEE
:101A000094E09F938F930E94564580912C1A806199
:101A100080932C1ADACE0E94C7251F928F9380E400
:101A200094E09F938F930E94564582E090E09093BC
:101A3000620A8093610A1092600A68C282E294E0AE
:101A40009F938F930E94564580912C1A0F900F9070
:101A500081FD08C08DE194E09F938F930E945645CD
:101A60000F900F9080E094E09F938F930E945645D3
:101A700080912C1A0F900F9082FD08C08BEF93E09D
:101A80009F938F930E9456450F900F9081EC93E0A7
:101A90009F938F930E94564580912C1A0F900F9020
:101AA00080FD08C08CEB93E09F938F930E94564576
:101AB0000F900F9086E993E09F938F930E94564575
:101AC00080912C1A0F900F9083FD08C081E993E05C
:101AD0009F938F930E9456450F900F908BE693E053
:101AE0009F938F930E94564580912C1A0F900F90D0
:101AF00084FD08C086E693E09F938F930E9456452D
:101B00000F900F9089E493E09F938F930E94564526
:101B1000809132011F928F93809131011F928F9398
:101B2000809130011F928F9380912F011F928F938C
:101B300080912E011F928F9380912D011F928F9380
:101B400084E193E09F938F930E9456458091AB115F
:101B50001F928F938091AA111F928F938091A91148
:101B60001F928F938091A8111F928F938091A7113C
:101B70001F928F938091A6111F928F938091A51130
:101B80001F928F938091A4111F928F9386ED92E004
:101B90009F938F930E9456450FB6F894DEBF0FBEF9
:101BA000CDBF0E9429241F928F938CEA92E09F93CD
:101BB0008F930E9456450E944B0A89EA92E09F93B8
:101BC0008F930E945645F09013130F900F900F9033
:101BD0000F900F900F9000910F1310E00C5511090A
:101BE000FF20E9F00E94AB262F2D30E02C55310963
:101BF0003F932F931F930F9390E08C5591099F93E0
:101C00008F938BE792E09F938F930E94564510929B
:101C100013130FB6F894DEBF0FBECDBF15C00E94E0
:101C2000AB261F930F9390E08C5591099F938F9350
:101C30008DE492E09F938F930E9456450F900F90F2
:101C40000F900F900F900F908091FF121F928F9323
:101C500088E292E09F938F930E9456450F900F90D9
:101C60000F900F9080912C01811108C083E292E0C7
:101C70009F938F930E9456450F900F908AE192E0B8
:101C80009F938F930E9456450F900F90ECE3FAE1DB
:101C9000808191818234924439F0EC53FA41FF9370
:101CA000EF9388EF91E02EC1EC59FF4FEB3930E212
:101CB000F30770F32FC18AEE91E09F938F930E94F8
:101CC00056450E944A3D0E942924582ECE01019675
:101CD0003C0182E2F30111928A95E9F78E010D5DD4
:101CE0001F4F81E1F80111928A95E9F70F900F904B
:101CF000E12CF12CA8EEAA2EA1E0BA2E4301680136
:101D00009BE0892F9DAB0E944024F0E5FA95F1F706
:101D10000E94AB26F60120819DA928170CF4282FDC
:101D2000F60121936F01F40120813181280F311DCB
:101D300087FD3A95219331934F019F5F9B3109F7BE
:101D4000E7FE0FC07698C7018F779927892B51F44A
:101D5000BF92AF920E9456450E944A3D0F900F904D
:101D600001C0769A0E942C22FFEFEF1AFF0AE114BD
:101D700020E1F20619F6852D0E942C2486EE91E0D2
:101D80009F938F930E9456450F900F905BE0E52E36
:101D9000F12C69EDC62E61E0D62E77EDA72E71E00D
:101DA000B72EE5ED8E2EE1E09E2EF3ED4F2EF1E005
:101DB0005F2EF301819191913F01F801208133273A
:101DC00027FD3095880F892F881F990B9195322E0A
:101DD0008217930708F4382E3CAA2C5531093F93FB
:101DE0002F93FF92EF92DF92CF920E9456450F9071
:101DF0000F900F900F900F900F90212C312C2CA949
:101E0000221571F0BF92AF920E945645F801808171
:101E100081508083FFEF2F1A3F0A0F900F90EFCF72
:101E2000F801808118165CF49F928F920E945645AB
:101E3000F8018081815080830F900F90F1CF5F92E5
:101E40004F920E9456450E944A3D0F5F1F4FFFEF81
:101E5000EF1AFF0A0F900F902BE1E216F10409F040
:101E6000A8CF8CEC91E09F938F930E9456450E94DF
:101E70004A3DABCC85EB91E09F938F930E945645F2
:101E80000E944A3D5F9A5D98779876980F900F90E0
:101E90008AE03FEF90E7E2E031509040E040E1F728
:101EA00000C000008150A9F75F985D9A779A769AF2
:101EB0000E9452222FC0FFEF20E732E0F150204075
:101EC0003040E1F700C000008150A9F78091E000A8
:101ED00081608093E00084E19FEFE0E7F2E09150C1
:101EE000E040F040E1F700C000008150A9F70E94F7
:101EF000372210C0212F332727FD30953F931F93A2
:101F00008FE791E09F938F930E9456450F900F901B
:101F10000F900F90E5960FB6F894DEBF0FBECDBFC1
:101F2000DF91CF911F910F91FF90EF90DF90CF90B5
:101F3000BF90AF909F908F907F906F905F904F90E9
:101F40003F902F900895CF93DF93EC018881998182
:101F5000009741F08D3C910509F48AC019821882DE
:101F600083E08EC08091381A9091391A9093680A54
:101F70008093670A8091FC11882321F0815080931F
:101F8000FC1101C0769A8091FF12882309F45DC08C
:101F90000E94ED3C81709091720A891721F10E9494
:101FA000ED3C81708093720A882369F08091381A21
:101FB0009091391A9093660A8093650A0E94E13CD9
:101FC0000E94E63C08C08091650A9091660A909351
:101FD000391A8093381A8091381A9091391A90934F
:101FE000640A8093630A8091710A843048F090916A
:101FF000341A992329F01092710A0E944A3D03C0B5
:102000008F5F8093710A8091630A9091640A909324
:10201000391A8093381A0E94FD3C882329F00E94C7
:10202000253D0E94130BF7CF80912C1A84FF09C025
:102030008091670A9091680A9093391A8093381AB0
:1020400004C01092391A1092381A8091FF128158E8
:10205000823018F461E070E002C06DE770E089E65C
:102060009AE00E941E2D8DEC90E09983888307C032
:1020700089E69AE00E94452D892B09F07BCF81E00B
:10208000DF91CF910895769885E08093FC110895B3
:1020900082E08093E9008091E800807208950C94BA
:1020A000C02380913E12882339F0815080933E12E4
:1020B00082FF02C05D9801C05D9A8091FD11882366
:1020C00039F081508093FD1182FF02C07798089506
:1020D000779A0895CF93DF93EC01888199810097D7
:1020E000A9F08332914021F01982188283E03BC02D
:1020F00083E79AE00E94452D892B41F40E94481005
:10210000882381F10E94C023882361F10E9451102D
:102110008091FF12833071F028F4813041F08230D9
:1021200071F015C0813819F0823849F010C00E9452
:102130000E1407C00E94151861E070E00BC00E94E9
:102140009F198111F9CF4F9A6FE070E003C04F9A49
:102150006FE170E083E79AE00E941E2D83E291E038
:102160009983888381E0DF91CF91089580913E1219
:10217000886080933E12815082FD5D980895809121
:10218000FD1188608093FD11815082FD5D98089556
:1021900020912C012223D9F02091FF122223B9F0A3
:1021A000233071F028F4213041F0223061F00FC06B
:1021B000213819F0223839F00AC00E94F81405C0FD
:1021C0000E948F1802C00E943C1A811103C00E9415
:1021D0002C2280E00895CF93C82F80912C018C177A
:1021E000B9F09091FF12923071F018F4913031F003
:1021F0000FC0913819F0923831F00AC0C0932C0109
:102200000E941D1105C08C2F0E949719C0932C01AC
:1022100080E0CF91089526E0EDE2F1E0DC0101904D
:102220000D922A95E1F7089526E0FC01ADE2B1E0B8
:1022300001900D922A95E1F7089581E08093800A3C
:10224000089584E090E0A0E0B0E880933F1290937E
:102250004012A0934112B093421284E090E0A0E0BB
:10226000B0E080934F1290935012A0935112B0930C
:10227000521280E190E0A0E0B0E08093531290937E
:102280005412A0935512B093561280914B12909114
:102290004C12A0914D12B0914E12823022E0920762
:1022A00021E0A207B10509F4FCC008F069C08C3038
:1022B00021E09207A207B105A0F58A3021E092073C
:1022C000A207B10508F0FEC0853021E09207A20701
:1022D000B105A8F4833021E09207A207B10508F008
:1022E000E0C0813021E09207A207B10509F4C8C01F
:1022F00082309140A140B10509F4D3C07AC1863043
:1023000021E09207A207B10509F4D7C087309140B8
:10231000A140B10509F06DC184EC99E0A0E0B0E006
:1023200056C18F3021E09207A207B10509F4FFC022
:1023300070F48D3021E09207A207B10509F4C7C0FF
:1023400008F0DAC08FEF9FEFAFEFB0E040C184310B
:1023500021E09207A207B10509F4D7C0863121E038
:102360009207A207B10509F4DDC081319140A14077
:10237000B10509F03EC182E195E0A0E0B0E027C1DF
:10238000833021E09207A207B20709F4FCC088F568
:10239000843021E0920722E0A207B10509F406C1CA
:1023A000C8F4823021E0920722E0A207B10509F4C7
:1023B000F4C008F004C181309140A240B10509F099
:1023C00018C18091ED129091EE12A091EF12B09190
:1023D000F012FDC0853021E0920722E0A207B1058E
:1023E00009F45FC081309140A140B14008F0ABC01A
:1023F00000C1843021E0920722E0A20721E0B20769
:10240000B0F4813021E0920722E0A20721E0B20778
:1024100008F047C0843021E09207A207B20709F410
:10242000B7C085309140A140B140D9F1E2C08230BF
:1024300021E09207A2072DEFB20709F4D1C0863040
:1024400021E09207A2072DEFB20759F181159140C3
:10245000A140BD4F09F0CDC086E090E0A0E0B0E023
:1024600080934F1290935012A0935112B093521236
:1024700086E0E7E5F2E1DF011D928A95E9F719C0F0
:102480008CE890E0A0E0B0E080934F12909350125F
:10249000A0935112B09352124CE850E068E77AE0F2
:1024A00026C0109257121092581210925912109280
:1024B0005A1280E090E0DC01A8C084E095E0A0E042
:1024C000B0E085C086E690E0A0E0B0E080C088E0A3
:1024D00090E0A0E0B0E080934F1290935012A09350
:1024E0005112B093521248E050E06EE67AE087E570
:1024F00092E10E94CD44DDCF80917B0A90917C0ACD
:10250000A0917D0AB0917E0A62C081E090E0A0E0D7
:10251000B0E020912C01222309F459C080E090E022
:10252000DC0155C080E090E1A0E0B0E050C084E064
:1025300095E0A0E0B0E08093571290935812A093DA
:102540005912B0935A1210925B1210925C121092B0
:102550005D1210925E1287E592E10E940B1180914C
:102560004F1290915012A0915112B09152120296B6
:10257000A11DB11D80934F1290935012A093511240
:10258000B093521296CF80E090E0A0E0BEE01FC072
:1025900081E090E0A0E0B0E01AC08091F11290914B
:1025A000F212A091F312B091F41211C08091F912BD
:1025B0009091FA12A091FB12B091FC1208C0809188
:1025C000F5129091F612A091F712B091F812809343
:1025D000571290935812A0935912B0935A1269CF80
:1025E00010924F12109250121092511210925212D9
:1025F00060CF10924F1210925012109251121092FE
:10260000521281E090E0A0E0B0EC80934B129093E6
:102610004C12A0934D12B0934E1240914F12509114
:1026200050126091511270915212DB01CA0148960A
:10263000A11DB11D8093431290934412A0934512A3
:10264000B0934612452B462B472B41F41092531260
:1026500010925412109255121092561280937F0AC3
:102660000895CF93DF93EB0147E050E066E67AE010
:102670000E94DF44892B51F4988180912C1A903369
:1026800011F4877F01C0886080932C1ADF91CF916D
:1026900008958091E800877F8093E80020917F0A69
:1026A00080E090917F0A992321F19091E80092FDBA
:1026B00020C09091E80090FFFCCF30E4380F90915B
:1026C0007F0A992381F0831771F0E82FF0E0E15C35
:1026D000FD4E90819093F1008F5F90917F0A915011
:1026E00090937F0AECCF9091E8009E7F9093E80052
:1026F000D8CF8091E80082FD10C0822F8F7349F4FB
:102700008091E80080FFFCCF8091E8008E7F80936D
:10271000E8008091E80082FFFCCF8091E8008B7F89
:102720008093E8008091E8008F778093E80081E053
:1027300008950F931F932091E80020FF46C0209139
:102740007F0A211142C007E010E020E030E0009352
:102750003F1210934012209341123093421204E131
:1027600010E020E030E000934312109344122093D5
:10277000451230934612609347127093481280932B
:10278000491290934A12EFE3F2E181918093F100B4
:1027900082E1E335F807C9F78091E8008E7F8093E6
:1027A000E8008091E80080FFFCCF8091E80082FF84
:1027B000FCCF8091E8008B7F8093E8008091E80057
:1027C0008F778093E80081E001C080E01F910F9136
:1027D00008951F93CF93DF93C9EED0E083E0888301
:1027E00060E081EC0E94231B81E0888364E381E840
:1027F0000E94231B12E0188364E380E80E94231BDD
:10280000EAEEF0E088E0808310821083108284E09A
:1028100080831082DF91CF911F910895FF920F93D3
:102820001F93CF93DF938091EB129091EC1202975C
:1028300009F0D7C080913501882321F00E941D390D
:10284000109235015F9A82E08093E9008091E80060
:1028500082FFC5C08091F7139091F813892B09F07E
:10286000BEC09091F2009C3260F48091E8008B7FB2
:102870008093E8008091E8008F778093E80021E062
:1028800001C020E0EEEFF1E18091F100819382E15F
:10289000EA32F807C9F784EDF82EF90E8091FE119F
:1028A0009091FF11A0910012B09101120197A10522
:1028B000B10559F08091E8008B7F8093E80080910A
:1028C000E8008F778093E80021E080910A129091D0
:1028D0000B12A0910C12B0910D12892B8A2B8B2B0D
:1028E00009F47DC021117BC00E94B6102091061210
:1028F00030910712245231098091E8008F7E809335
:10290000E80080E090E02817390731F14091F100AC
:10291000FA9401F54091E8004B7F4093E800409124
:10292000E8004F774093E8004091E80042FD04C082
:102930004091E80044FFF8CF4091E80044FF06C012
:102940008091E8008F7E8093E80006C0F090F2004E
:10295000FF2011F00196D7CFC0910A12D0910B122F
:1029600001E014E12097D9F08091F100F801819302
:102970008F012197FA94B1F72097A1F38091E80095
:102980008B7F8093E8008091E8008F778093E80048
:102990000E94F91A811123C0F090F200E3CF8091D8
:1029A000E8008B7F8093E8008091E8008F77809328
:1029B000E80080910A1290910B12A0910C12B09134
:1029C0000D128331F5E09F07A105B10540F4909306
:1029D000F8138093F71381E094E10E94443B81E077
:1029E00001C080E0DF91CF911F910F91FF9008957A
:1029F0000F931F93CF93DF93EC018B0181E090E065
:102A0000A0E0B0E08093FE119093FF11A09300121C
:102A1000B093011284E290E0A0E0B0E0809306124F
:102A200090930712A0930812B0930912AB0160E0D3
:102A300070E040930A1250930B1260930C12709343
:102A40000D12109212121092131210921412109270
:102A5000151210920E1210920F1210921012109264
:102A60001112109216121092171210921812109240
:102A7000191210921A1210921B1210921C1210921C
:102A80001D1210921E1210921F12109220121092FC
:102A900021121092221210922312109224121092DC
:102AA00025121092261210922712109228121092BC
:102AB0002912445D5F4F6F4F7F4F40930212509336
:102AC0000312609304127093051281E08093E90071
:102AD0008091E8008F778093E8000E947B1A811133
:102AE0002AC0EEEFF1E181918093F10082E1EA32B8
:102AF000F807C9F70C0F1D1FC017D10789F089917E
:102B00008093F1008091E80085FDF6CF8091E80088
:102B10008F778093E8000E947B1A882369F30BC0AB
:102B20008091E8008F778093E8000E94BF100E9498
:102B3000CF1A91E0811190E0892FDF91CF911F9101
:102B40000F91089565FF02C081E001C080E00C9400
:102B5000BD230F931F93CF93DF93CDB7DEB7699754
:102B60000FB6F894DEBF0FBECDBF00915312109187
:102B700054129801295B3D4EF90184819581A6810B
:102B8000B78183339105A105B10508F082E390E098
:102B90001816CCF4492F50E061E070E06C0F7D1FF7
:102BA000640F751F440F551FD901ED91FC91E00F83
:102BB000F11FE40FF51FE95BFD4E4081FB014083EF
:102BC00082509F5FE5CF80914B1290914C12A09163
:102BD0004D12B0914E128231F1E09F07AF07B1055F
:102BE00009F46FC060F48E30E1E09E07AE07B105D6
:102BF00029F18F309140A140B105F1F562C08B31D0
:102C000042E0940741E0A407B10531F083309140E0
:102C1000A140B14089F555C0D90150964D915C91C4
:102C200051971C966D917C911D97600F711F695B88
:102C30007D4ECE0101960E94311343C0F90160819F
:102C400071818281938160937B0A70937C0A809367
:102C50007D0A90937E0A611571058105910529F021
:102C60000E94A21582E090E002C081E090E0909383
:102C7000EC128093EB1225C085E090E0A0E0B0E874
:102C800080933F1290934012A0934112B09342124E
:102C900080E190E0A0E0B0E0809343129093441272
:102CA000A0934512B093461281E090E0A0E0B0EC12
:102CB00080934B1290934C12A0934D12B0934E12EE
:102CC00020C085E090E0A0E0B0E880933F129093B0
:102CD0004012A0934112B093421280E190E0A0E034
:102CE000B0E08093431290934412A0934512B093A6
:102CF000461210924B1210924C1210924D121092DA
:102D00004E1280E180937F0A69960FB6F894DEBF79
:102D10000FBECDBFDF91CF911F910F9108952091EC
:102D2000E800277F2093E8008D3A910510F08CEAA7
:102D300090E02091E8002F7B2093E80020E041E024
:102D4000009789F13091E8005091E80056FB552733
:102D500050F9541729F032FB332730F93413F2CFEE
:102D60003091E80032FF1AC030E4320F5091F10088
:102D7000E22FF0E0E15CFD4E50832F5F01972317B7
:102D800011F0009799F73091E8003B7F3093E8000D
:102D90003091E8003F773093E800D2CF8091E8008F
:102DA0008F7B8093E8008091E8008E7F8093E8001D
:102DB00080913F1290914012A0914112B091421225
:102DC00084309105A105B10509F4C0C0A0F482309A
:102DD0009105A105B105E9F10397A105B10509F038
:102DE000EFC05F9A5D98779876988091E8008E7F23
:102DF0008093E800AAC086309105A105B10509F4C9
:102E0000ABC008F4A6C00897A105B10509F0D8C069
:102E100088E090E0A0E0B0E880933F1290934012E9
:102E2000A0934112B093421280E190E0A0E0B0E0A4
:102E30008093431290934412A0934512B09346128C
:102E400010924B1210924C1210924D1210924E1280
:102E5000B3C082E090E0A0E0B0E880933F1290938E
:102E60004012A0934112B093421284E390E0A0E09C
:102E7000B0E08093431290934412A0934512B09314
:102E8000461281E090E0A0E0B0E080934F12909372
:102E90005012A0935112B0935212809353129093F8
:102EA0005412A0935512B093561210924B121092D6
:102EB0004C1210924D1210924E1280935712909312
:102EC0005812A0935912B0935A1210925B1210929A
:102ED0005C1210925D1210925E1280935F129093BA
:102EE0006012A0936112B09362128CE495E0A0E0AE
:102EF000B0E08093631290936412A0936512B09334
:102F0000661283E090E0A0E0B0E0809367129093B7
:102F10006812A0936912B0936A1210926B12109209
:102F20006C1210926D1210926E1210926F1210921B
:102F30007012109271121092721281E090E09093D0
:102F4000EC128093EB1284E338C0FFCF0E94211172
:102F50003AC00E94A91537C01092EC121092EB12E1
:102F600086E090E0A0E0B0E880933F12909340129A
:102F7000A0934112B093421280E190E0A0E0B0E053
:102F80008093431290934412A0934512B09346123B
:102F900010924712109248121092491210924A123F
:102FA00081E090E0A0E0B0E080934B1290934C124F
:102FB000A0934D12B0934E1280E180937F0A03C01C
:102FC000779880E008958091E80080FFFCCF8091A1
:102FD000E80082FF0AC08091E8008B7F8093E800C0
:102FE0008091E8008F778093E80081E08093800AE9
:102FF00008951F93CF93DF93C9EED0E081E08883DB
:1030000064E381E80E94231B12E0188364E380E8F4
:103010000E94231BEAEEF0E01083108284E080839C
:103020001082DF91CF911F9108951F93CF93DF936B
:1030300080913601882321F00E941D3910923601BB
:103040005F9A82E08093E9008091E80082FF63C08C
:103050008091F7139091F813892B09F05CC01091BF
:10306000F200123050F48091E8008B7F8093E800EA
:103070008091E8008F778093E800C091F100C093C1
:10308000FE118091F1008093FF1187FD44C08F7382
:10309000D0E0D82B209709F43EC012500E94B61001
:1030A000E1E0F4E1CE012091F1002193019711506C
:1030B00079F50097D1F48091E8008B7F8093E80048
:1030C0008091E8008F778093E8002497C33185E0F2
:1030D000D80708F5D093F813C093F71381E094E173
:1030E000DF91CF911F910C94443B2091E8002B7FFE
:1030F0002093E8002091E8002F772093E8002091AA
:10310000E80022FFFCCF1091F2001111CCCFD3CFF9
:10311000009749F6D0CFDF91CF911F910895EF929C
:10312000FF920F931F93CF93DF9300D000D0CDB7C2
:10313000DEB78C017B0181E08093E9000E947B1A5D
:10314000811151C0C70104968093F100892F8F73BC
:103150008093F100E00EF11E0E151F0599F0F801A5
:1031600081918F018093F1008091E80085FDF4CF7B
:103170008091E8008F778093E8000E947B1A882373
:1031800059F331C08EED89838DEA8A838EEB8B8370
:103190008FEE8C838E010F5F1F4F7E01F5E0EF0EE7
:1031A000F11CF80181918F018093F1008091E8007A
:1031B00085FF04C00E151F05A1F70AC08091E80025
:1031C0008F778093E8000E947B1A882399F30BC0C5
:1031D0008091E8008F778093E8000E94BF100E94E2
:1031E000CF1A91E0811190E0892F0F900F900F90EE
:1031F0000F90DF91CF911F910F91FF90EF90089565
:103200002091F1008091F10090E0982F8827820FA3
:10321000911D9093820A8093810A8091E800877FB4
:103220008093E8008091E8008E7F8093E8000E9400
:10323000A51A8091820A8F938091810A8F9382E4EC
:103240009BE09F938F930E9456458091810A0F9037
:103250000F900F900F9080FF0CC085E39BE09F9331
:103260008F930E94564581E00E94BD230F900F90DE
:1032700003C080E00E94BD238091810A81FF08C0C5
:1032800086E29BE09F938F930E9456450F900F908C
:103290008091810A82FF08C08CE19BE09F938F930D
:1032A0000E9456450F900F908091810A83FF08C0BD
:1032B00081E19BE09F938F930E9456450F900F9062
:1032C0008091810A84FF08C086E09BE09F938F93E2
:1032D0000E9456450F900F9084E09BE09F938F9340
:1032E0000E9456450F900F90089508950F931F93D5
:1032F000CF93DF93C9EED0E011E0188364E381E857
:103300000E94231B02E0088364E380E80E94231BE1
:10331000EAEEF0E00083108284E080831082109354
:103320002C01DF91CF911F910F91089508959091F5
:103330002C01891719F0769880932C0108950F932A
:103340001F93CF93DF9382E08093E9008091EB009D
:1033500080FF24C080913701882371F00E941D39BD
:10336000109237018091810A80FF03C081E00E94A2
:10337000BD2382E08093E90080912C01811110C06F
:103380008091E80085FF0AC08091E8008B7F8093E0
:10339000E8008091E8008F778093E80080E067C0C4
:1033A0005F9A8091E80085FF61C00E944F108823DA
:1033B00009F45CC00E94B61001E014E1C0E0D0E066
:1033C0008091F200803409F5F80180E490E08F01EB
:1033D000C23125E0D20738F4019728F02091F1009E
:1033E00021932196F4CFC80FD91F21968091E80030
:1033F0008B7F8093E8008091E8008F778093E800CE
:103400000E947B1A8823E1F231C04091F20050E023
:10341000F80120E030E0CA01821B930BC23165E065
:10342000D60758F4892B39F08091F10081932196C9
:103430002F5F3F4FF0CF8FEF9FEFC80FD91F21961F
:103440008091E8008B7F8093E8008091E8008F777F
:103450008093E800C33185E0D80740F4D093F81397
:10346000C093F71381E094E10E94443B81E0DF9137
:10347000CF911F910F9108950F931F93CF93DF93D7
:10348000EC018B0181E08093E9000E947B1A81119D
:103490002BC00C0F1D1FC017D107B1F0899180936D
:1034A000F1008091E80085FDF6CF8091E8008E7FE5
:1034B0008093E8008091E8008F778093E8000E9475
:1034C0007B1A882341F310C08091E8008E7F80939F
:1034D000E8008091E8008F778093E8000E94BF1099
:1034E0000E94CF1A91E0811190E0892FDF91CF9156
:1034F0001F910F9108958AEF90E02BEF3091E1003A
:1035000032FF03C02093E10001973091E80035FDC0
:1035100014C03091D80037FF12C03091E00030FD68
:103520000EC03091EB0030FF0CC03091EB0035FD48
:103530000AC0009719F78AE0089580E0089581E0B5
:10354000089582E0089583E008958AEF90E02BEFDC
:103550003091E10032FF03C02093E10001973091E8
:10356000E80030FD14C03091D80037FF12C0309110
:10357000E00030FD0EC03091EB0030FF0CC0309108
:10358000EB0035FD0AC0009719F78AE0089580E046
:10359000089581E0089582E0089583E008958AEF18
:1035A00090E02BEF3091E10032FF03C02093E10067
:1035B00001973091E80030FD14C03091D80037FFFA
:1035C00012C03091E00030FD0EC03091EB0030FFB2
:1035D0000CC03091EB0035FD0AC0009719F78AE066
:1035E000089580E0089581E0089582E0089583E0E1
:1035F00008958AEF90E02BEF3091E10032FF03C095
:103600002093E10001973091E80032FD14C0309121
:10361000D80037FF12C03091E00030FD0EC030916D
:10362000EB0030FF0CC03091EB0035FD0AC0009775
:1036300019F78AE0089580E0089581E0089582E016
:10364000089583E00895EBEEF0E09081916090831F
:103650008093EC00EDEEF0E080818270682B608357
:103660008081826080838091EE00881F8827881F78
:1036700008952091F40090E0822F817020FD05C014
:103680009F5F26959730C1F70895892F08958093FD
:10369000E9008091E80085FF09C0442339F0FB016F
:1036A0008191BF018093F1004150F3CF842F0895A1
:1036B0008093E9008091E80085FF09C0442339F038
:1036C0008091F100FB018193BF014150F3CF842F22
:1036D00008958093E900EBEEF0E0808180628083C2
:1036E00008958091D8008F7B8093D8008091D90075
:1036F00081FF0CC01092E9008091EB0080FD06C0B4
:103700001092E90060E380E00C94231B80E00895B0
:10371000CF92DF92FF920F931F93CF93DF931F926D
:10372000CDB7DEB70E94FD3D6C018091F100809124
:10373000F1000091F1008091F10010E0182BC1140C
:10374000D10409F47EC0F60101900020E9F7EC19DC
:10375000FD09FE2EFF0C8F2D90E08017910740F49D
:1037600021E03F2D3F7309F020E020938B0A8C016C
:103770008091E800877F8093E8000E94A51A81115C
:1037800049C0F092F10083E08093F10002501109EA
:103790000115110529F48091E8008E7F8093E800DF
:1037A00022E00115110551F18091E80082FD26C04B
:1037B00029830E94A51A2981882331F08091EB008A
:1037C00080628093EB001AC0C6016C01203479F04E
:1037D0000196F60130813093F1001092F1006C01F6
:1037E000025011092E5F0115110579F701C020E083
:1037F0008091E8008E7F8093E800D3CF8091E8002D
:1038000082FD15C080918B0A813079F40E94A51A3F
:10381000882331F08091EB0080628093EB0011C02F
:103820008091E8008E7F8093E8000E94F91A8091D1
:10383000E8008B7F8093E8008091E8008F77809389
:10384000E8000F90DF91CF911F910F91FF90DF90D3
:10385000CF900895CF92DF92FF920F931F93CF9353
:10386000DF931F92CDB7DEB7F82E0E94383E8C0151
:10387000009759F48F2D0F90DF91CF911F910F91E9
:10388000FF90DF90CF900C94881B8091F100809185
:10389000F100C090F1008091F100D12CD82AC8012C
:1038A0000E94D6440196F82EFF0C2F2D30E02C15E7
:1038B0003D0540F481E09F2D9F7309F080E08093E7
:1038C0008B0A69018091E800877F8093E8000E945D
:1038D000A51A81115CC0C114D10409F470C0F09222
:1038E000F10081E0C816D10409F46BC083E0809335
:1038F000F100E2E0CE1AD10892E0C114D10431F512
:103900008091E8008E7F8093E800C12CD12C1EC0EE
:103910001092F10082E0C81AD1089E5FC114D10450
:1039200081F0903431F10F5F1F4FF8013197E4912E
:10393000E093F100F1E0CF16D10451F79F5FC12C65
:10394000D12C8091E8008E7F8093E800C114D104CF
:1039500091F08091E80082FD0EC099830E94A51A23
:1039600099818823F1F28091EB0080628093EB00D3
:1039700002C090E0E6CF8091E80082FD15C0809102
:103980008B0A813079F40E94A51A882331F0809146
:10399000EB0080628093EB0016C08091E8008E7F80
:1039A0008093E8000E94F91A8091E8008B7F809351
:1039B000E8008091E8008F778093E80004C090E0F1
:1039C0009FCF91E09DCF0F90DF91CF911F910F91ED
:1039D000FF90DF90CF9008950F931F93CF93DF93C5
:1039E0001F92CDB7DEB78091F1008093830A90914A
:1039F000F100492F50E04C30510508F0A6C1FA0102
:103A0000E45BFF4F0C942F44803809F09EC1109264
:103A10008B0A6091F1008091F100823059F083307F
:103A200001F1813021F50E94AA3D809300130E948C
:103A3000A73D0AC0862F69830E94CF3D8093001363
:103A40006981862F0E94AC3D9093021380930113ED
:103A50008091F1008091F1001091F1000091F1004E
:103A60001BC0662321F0862F0E942A1C71C19091F1
:103A7000F1009091F1001091F1000091F1000E948D
:103A8000EC3D811109C08091EB0080628093EB00D6
:103A90008091E800877F56C18091E800877F8093FE
:103AA000E80080910013811710F0002349F08F7314
:103AB00021F481E080938B0A18C010928B0A15C004
:103AC0001093001312C08091E80082FD2EC00E9466
:103AD000A51A81110FC021E480910013811110C03B
:103AE0008091E8008E7F8093E8008091001381111F
:103AF000EACF1BC08091EB0080628093EB0015C081
:103B0000215071F3E0910113F0910213CF0101965E
:103B10009093021380930113E491E093F10080915C
:103B20000013815080930013D7CF8091E80082FD6D
:103B300001C180918B0A813009F0FAC00E94A51A58
:103B4000882309F4D2C08091EB0080628093EB005F
:103B5000FFC0803809F0F9C08091E800877F80932A
:103B6000E8008091FF128093F100BFC08111EDC089
:103B70009091E3008091F1008F779078892B80936A
:103B8000E3008091E800877F8093E8008091E8005F
:103B90008E7F8093E8008091E80080FFFCCF8091C9
:103BA000E30080688093E300D3C08111CEC0909180
:103BB000F1008091E800877F8093E8009093FF12E6
:103BC0008091E8008E7F8093E8008091E80080FF7C
:103BD000FCCF8091FF120E94473EBAC0833008F0AC
:103BE000B4C0823009F0B4C08091F1009091F1002E
:103BF0008111AEC0E091F100EF77E093E900809190
:103C0000EB0080FFA5C0EE23A9F08091EB0080615E
:103C10008093EB0081E090E00E2E01C0880F0A94A3
:103C2000EAF78093EA001092EA008091EB00886046
:103C30008093EB001092E900F0E0EC57F54F108212
:103C400023C0833008F081C0823009F081C08091A8
:103C5000F1009091F10081117BC0E091F100EF77CC
:103C600009F476C0E093E9008091EB0080FF15C075
:103C70008091EB0080628093EB001092E900F0E00D
:103C8000EC57F54F81E080838091E800877F809337
:103C9000E8008091E8008E7F55C01092E90058C07E
:103CA00020E8280F233008F050C09091F100909147
:103CB000F100E091F100813811F0823841F08091FB
:103CC000E800877F8093E8001092F1000CC080919B
:103CD000E800877F8093E800EF77F0E0EC57F54F3E
:103CE00080818093F1001092F1008091E8008E7F36
:103CF0008093E8001DC0813841F52AC0813041F52C
:103D00006091F1008091F1008091F1000E945C3F90
:103D10008823F1F08091E800877F8093E80080910C
:103D2000E8008E7F8093E8008091E80080FFFCCF60
:103D30000E94F91A8091E8008B7F8093E8008091BF
:103D4000E8008F778093E80003C0692F0E94E23E6D
:103D50001092E9008091E80083FF05C08091EB009C
:103D600080628093EB008091E800877F8093E80079
:103D70008091E8008B7F8093E8008091E8008F7746
:103D80008093E8008091E8008E7F8093E800809126
:103D9000E8008F778093E8000F90DF91CF911F911B
:103DA0000F910895789483B7817F846083BF83B730
:103DB000816083BF889583B78E7F83BF08958EE02F
:103DC00089BD09B400FEFDCF8091D8008F7D80931E
:103DD000D8008091D80081608093D8008091E20063
:103DE00088608093E2000E94711B8091E0008E7FCA
:103DF0008093E00008951F93CF93DF93EC01162F7B
:103E0000623871F51092E9008091E80083FD0E940C
:103E1000EC1C8091800A8823F9F083E08093E9000C
:103E20008091E80085FF18C081E08093F100109236
:103E3000F1001092F1001092F1001092F100109236
:103E4000F1001092F1001092F1008091E8008F775C
:103E50008093E8001092800A8AE391E00E94A22BEE
:103E600088819981009741F08C30914009F455C0C8
:103E70001982188283E054C08091D70081608093BA
:103E8000D7008091D7008F7B8093D7008091D70097
:103E900080688093D70078948091D8008F76809343
:103EA000D8008091D80080698093D8008091D80094
:103EB0008F7B8093D8008091D80081608093D80058
:103EC00078948AE391E00E94A22B8091D90080FF30
:103ED00009C080910313811105C081E08093031311
:103EE0000E94DF1E80918C0A90918D0A90FF10C075
:103EF00080918C0A90918D0A9E7F90938D0A809379
:103F00008C0A81E08093EA001092EA001092FF127E
:103F10008CE091E09983888302C01F32B1F281E086
:103F2000DF91CF911F9108951F920F920FB60F92BC
:103F300011240BB60F922F933F934F935F936F9380
:103F40007F938F939F93AF93BF93EF93FF9340E043
:103F500050E06FE28AE391E00E94542B8091DA00F6
:103F600080FF31C08091D80080FF2DC08EEF8093FC
:103F7000DA008091D90080FF19C081E0809303139B
:103F800080918C0A90918D0A826090938D0A809323
:103F90008C0A8091E20088608093E2000E94DF1E1C
:103FA0008091E0008E7F8093E0000DC0109203139B
:103FB0001092FF1280918C0A90918D0A84609093E8
:103FC0008D0A80938C0A8091E10082FF07C0809166
:103FD000E20082FF03C08BEF8093E1008091E1005B
:103FE00080FF1FC08091E20080FF1BC08EEF809396
:103FF000E1008091E20080618093E2008FEE809387
:10400000E1008091D80080628093D80080918C0A72
:1040100090918D0A806290938D0A80938C0A0E9401
:10402000D21E8091E10084FF1AC08091E20084FFDB
:1040300016C08091D8008F7D8093D8008FEE80933A
:10404000E1008091E2008F7E8093E20080918C0AF3
:1040500090918D0A806490938D0A80938C0A809150
:10406000E10085FF1AC08091E20085FF16C08091B3
:10407000E2008F7E8093E2008FED8093E1008091DB
:10408000E2008F7D8093E20080918C0A90918D0AEE
:10409000806890938D0A80938C0A8091E10083FF61
:1040A00012C08091E20083FF0EC087EF8093E10091
:1040B0000E94711B80918C0A90918D0A916090935F
:1040C0008D0A80938C0AFF91EF91BF91AF919F91E0
:1040D0008F917F916F915F914F913F912F910F90B1
:1040E0000BBE0F900FBE0F901F901895F894109272
:1040F000B60016BC89EF87BD82E084BD94E095BD13
:1041000095B395BB80936E00789408958091900A42
:104110009091910A2091900A3091910A8217930709
:10412000A9F708950F931F936091081370910913D5
:1041300080910A1390910B130091081310910913A9
:1041400020910A1330910B136017710782079307B0
:1041500059F71F910F9108956093081370930913F5
:1041600080930A1390930B130895CF93DF93EC0180
:104170000E948620C80FD91F0E9486208C1B9D0B91
:1041800097FDFACFDF91CF9108958430910548F0E3
:104190000397880F991F880F991F96958795019708
:1041A000F1F70895CF93DF93EC0184EE93E020972D
:1041B00031F00E94C520219787EE93E0F8CFDF9180
:1041C000CF9108950F931F93EFB7F8942091900A21
:1041D0003091910A280F391F3093910A2093900A49
:1041E00020918F0A820F911D409104135091051365
:1041F0006091061370910713A42FF52F362F272FE8
:104200004F5F5F4F6F4F7F4F8D379105B8F08D57E0
:104210009109009108131091091320910A1330910C
:104220000B130F5F1F4F2F4F3F4F00930813109337
:10423000091320930A1330930B13DECFA0930413BA
:10424000F0930513309306132093071380938F0A7E
:10425000EFBF1F910F9108951F920F920FB60F920B
:1042600011240BB60F922F933F934F935F936F934D
:104270007F938F939F93AF93BF93EF93FF9380911F
:10428000900A9091910A01969093910A8093900AD6
:1042900080918F0A8F5F80938F0A8D37F8F010928C
:1042A0008F0A8091081390910913A0910A13B0917D
:1042B0000B130196A11DB11D809308139093091350
:1042C000A0930A13B0930B1380918E0A8F5F809393
:1042D0008E0A811103C081E0809312130E945C2D2D
:1042E000892B11F00E946F2CFF91EF91BF91AF913C
:1042F0009F918F917F916F915F914F913F912F91FE
:104300000F900BBE0F900FBE0F901F9018951F922D
:104310000F920FB60F9211240BB60F922F933F936B
:104320004F935F936F937F938F939F93AF93BF93BD
:10433000EF93FF938091CE00E0910C13F0910D1359
:10434000309709F00995FF91EF91BF91AF919F913F
:104350008F917F916F915F914F913F912F910F902E
:104360000BBE0F900FBE0F901F90189581110DC0BE
:104370001092CD006093CC0088E98093C9004093EF
:10438000CA0010920D1310920C130895811106C0EB
:104390008091C80085FFFCCF6093CE000895CF9335
:1043A000C82F8A3031F46DE08091920A0E94C621B4
:1043B00002C08D3029F06C2F8091920A0E94C62194
:1043C00080E090E0CF910895811104C070930D13A7
:1043D00060930C1308951F93CF93DF93182FEB0175
:1043E0008881882369F08A3021F46DE0812F0E9452
:1043F000C62169916D30A1F3812F0E94C621F0CFB3
:10440000DF91CF911F9108959091C80095FFFCCF47
:104410008093CE0008958093920A84E491E0909373
:10442000391A8093381A089584B7877F84BF88E14A
:104430000FB6F89480936000109260000FBE08954C
:104440002FE088E190E00FB6F894A8958093600083
:104450000FBE209360000895A895089588E10FB6D7
:10446000F89480936000109260000FBE0895F89455
:1044700028E088E190E00FB6F894A895809360005A
:104480000FBE20936000FFCF80E090EFA1E0B0E08E
:10449000ABBFFC018791969121E0019609F420E0E1
:1044A000822F08958091E00081608093E000F8946D
:1044B0008AEC9CEAA2E4BCED80933C1A90933D1AEE
:1044C000A0933E1AB0933F1A80E0EFEFFCE73197DC
:1044D000F1F700C000008F5F8038B9F78AEC9CEAE2
:1044E000A2E4BCED80933C1A90933D1AA0933E1A2F
:1044F000B0933F1A0C9437228091141390E00895E2
:104500001C9909C0282F803108F02FE040E06FE0AF
:1045100085E00C9479270895EF92FF920F931F93F3
:10452000CF93DF93EC01F62EE72E0091A7131091A5
:10453000A8132091A9133091AA130F5F1F4F2F4F7B
:104540003F4F0093A7131093A8132093A913309300
:10455000AA1312E0160F17FD1CC0462F572FBC01DF
:1045600083E99AE00E94FA4440E050E06F2D7E2DEE
:10457000CE010E94232F612F70E0FB01EF56F54F13
:104580009183808383E99AE00E942A3C80E090E056
:1045900002C08FEF9FEFDF91CF911F910F91FF909E
:1045A000EF9008951C990DC040E06FE181E00E94FA
:1045B0006227282F2F7E81E090E0213021F080E0DB
:1045C000089580E090E008951C990FC040E06FE1ED
:1045D00081E00E9462278F3131F0982F9F7E9150A9
:1045E00081E0923018F480E0089581E00895CF933F
:1045F000DF93C0E1D7E20E94E422811103C021973A
:104600002097C9F7DF91CF91089540E06FE181E0F5
:104610000C946227CF93DF93C82F0E94F7220E9449
:104620000523D82FC81709F439C0C83069F483B1FD
:104630002C98EDE0F0E03197F1F723E040E06FE1F6
:1046400082E00E9479271FC0C93121F4863181F4AC
:1046500029E005C0C63161F4893151F426E040E01B
:104660006FE182E00E947927E3E0F0E03197F1F713
:104670002C2F40E06FE182E00E947927D83019F4B6
:10468000E9E6F1E002C0E3E0F0E03197F1F70E94E3
:1046900005238C1719F083E490E002C080E490E0D9
:1046A000DF91CF91089580919E13882359F00E9445
:1046B000E4220E94F7221C9903C086E00E940A238C
:1046C00010929E1380E090E0089581E080939E1305
:1046D0001C9B05C02C9881EC9DE00197F1F71C997B
:1046E00003C086E10E940A230C94F72280919E1356
:1046F000811102C00E94652381E090E008950F932C
:104700001F93CF93DF931F92CDB7DEB780919E1397
:10471000882351F01C9B02C080E028C00E94E42244
:104720008823D1F300E003C00E94762301E08FB715
:104730008983F8940E94F72221E047E060E888E04E
:104740000E94792789E191E00197F1F710E017FDC8
:1047500005C081E00E942C27182FF9CF89818FBFD7
:1047600001110E94532316FB882780F990E00F90D7
:10477000DF91CF911F910F9108958093150B0895AC
:104780000E940523823011F0823111F480E00895F7
:1047900081E00895282F45E060E28EE20C947927AD
:1047A0002F9827986CE08EE00E94472722E044E093
:1047B00060EF8CE20E94792725E041E06EE08CE218
:1047C0000E94792760E88FE20E94472786E00E94D6
:1047D0002C27682F8DE20E94472723E040E06FE0FE
:1047E00089E00E94792721E047E060E885E00C94A9
:1047F00079278DEF93E00197F1F70E940E27109231
:104800001C1310921B1310921A132D982C9881ECE4
:104810009DE00197F1F72D9A23E040E06FE182E0FF
:104820000E9479278DEF93E00197F1F78DE10E94C7
:104830002C278EE10E942C270E94D02360E070E09C
:1048400082E591E00E94812B0E94652381E090E047
:1048500008958091140B0895CF93DF931F92CDB7E5
:10486000DEB789830E94F72289818093140B282F59
:1048700040E06FE188E00F90DF91CF910C947927B1
:104880000E942C241C9903C086E00C940A230895EE
:10489000EF92FF921F93CF93DF9300D0CDB7DEB797
:1048A000162F7A01682F82E27A8399830E94472724
:1048B0009981692F83E20E944727612F80E20E943D
:1048C00047277A81672F81E20E944727E114F1048C
:1048D00079F1F70160818BE20E944727F70161813E
:1048E0008AE20E944727F701628189E20E944727F6
:1048F000F701638188E20E944727F701648187E21C
:104900000E944727F701658186E20E944727F70149
:10491000668185E20E944727F701678184E20F9054
:104920000F90DF91CF911F91FF90EF900C9447274C
:104930000F900F90DF91CF911F91FF90EF9008950E
:1049400080919E138823D9F082E591E00E94A22BEA
:1049500081E0809314138091EB139091EC13A0915C
:10496000ED13B091EE130196A11DB11D8093EB13D1
:104970009093EC13A093ED13B093EE1309C0E09164
:104980001B1382E8E89FF0011124E45EFC4E1082C4
:1049900081E090E00895CF92DF92EF92FF920F9323
:1049A0001F93CF93DF936C0180911B1312E8189F24
:1049B000C0011124DC01A45EBC4E2C91222309F419
:1049C0009CC030919E13332309F497C027FF15C074
:1049D0001C928091D7139091D813A091D913B091C4
:1049E000DA130196A11DB11D8093D7139093D813AC
:1049F000A093D913B093DA1380C02330A8F41C928B
:104A00008091D3139091D413A091D513B091D61364
:104A10000196A11DB11D8093D3139093D413A0933D
:104A2000D513B093D61369C0E22EF12CE70122977B
:104A30006C177D07A8F41C928091CF139091D0132E
:104A4000A091D113B091D2130196A11DB11D8093F5
:104A5000CF139093D013A093D113B093D2134DC022
:104A6000BC01635E7C4EA701C6010E94FA44E0913E
:104A70001B131E9FF0011124E45EFC4EDF01A058C1
:104A8000BF4F8C9180930E13108210921B13809154
:104A90001C1381110E94A02487E00E942C27809380
:104AA0000F1390911313992311F0891710F4809329
:104AB0001313682F70E084E00E94250A60910E13A2
:104AC00070E083E00E94250A0091AB131091AC13B3
:104AD0002091AD133091AE130F5F1F4F2F4F3F4FFB
:104AE0000093AB131093AC132093AD133093AE131C
:104AF000B701C6010E946F3C02C0C0E0D0E0CE0109
:104B0000DF91CF911F910F91FF90EF90DF90CF90A9
:104B100008950F931F93CF93DF931F92CDB7DEB706
:104B20008C01FC0180819181009719F181319540C0
:104B300029F0F8011182108283E021C06238F1F47B
:104B4000109214130E94AC098FB78983F8940E94C5
:104B5000130960E870E00E94CB2429812FBF18164A
:104B600019063CF40E940E09E091BA01F091BB01D4
:104B7000099581E195E0F8019183808381E00F90B0
:104B8000DF91CF911F910F9108950C9480221C9971
:104B900005C040E06FE085E00C94622780E1089555
:104BA0001F93CF93DF93182F1C9B04C02C98E1EC2C
:104BB000FDE017C0809112138823A9F021E047E09F
:104BC00060E88AE10E94792721E047E060E88BE114
:104BD0000E9479271092121381E080931513E1EA65
:104BE000F0E03197F1F70E94F7221C9903C089E1A8
:104BF0000E940A2386E00E94300A892B51F00E940D
:104C0000C725C82F86E00E94300A81500E9480226A
:104C100002C0C0E0D0E02C9A2C9862E0610F83E9DA
:104C20009AE00E94E7270E94F72245E060EE82E0CA
:104C30000E946227182F86E00E94300A892B19F003
:104C40008C2F0E9480220E946523123068F580918B
:104C5000E7139091E813A091E913B091EA1301963C
:104C6000A11DB11D8093E7139093E813A093E9135E
:104C7000B093EA138CE00E94300A892B09F446C0F5
:104C80008091C3139091C413A091C513B091C61322
:104C90000196A11DB11D8093C3139093C413A093DB
:104CA000C513B093C61332C01330A9F48091DF133B
:104CB0009091E013A091E113B091E2130196A11D30
:104CC000B11D8093DF139093E013A093E113B09391
:104CD000E21312E01CC01530A9F48091CB1390911F
:104CE000CC13A091CD13B091CE130196A11DB11D8F
:104CF0008093CB139093CC13A093CD13B093CE138A
:104D000013E005C0173019F411E001C010E0812F45
:104D100090E0DF91CF911F9108950F931F93CF9350
:104D2000DF938C01EB010E94B43C882369F0BE0143
:104D3000C8010E948C22009749F4CE01DF91CF91E7
:104D40001F910F910C94D02580E090E0DF91CF91DE
:104D50001F910F910895CF93DF9380919E1381113E
:104D600004C00E947623D1E001C0D0E00E94052358
:104D7000863111F0813129F487E00E942C27C82F59
:104D800008C040E06FE186E00E946227C82FCC0F88
:104D9000C80FD1110E9453238C2FDF91CF9108951A
:104DA00061E08EE00E94472763E082E00E9447278F
:104DB00060E183E00E94472721E045E060E688E06B
:104DC0000E94792720E047E060E885E00E9479278B
:104DD00081E00E942C276FE783E99AE00E94E72791
:104DE0006FE086E30E94472760E08DE30E9447273B
:104DF000279A2F9A69E082E00E94472789E691E08E
:104E00000197F1F78DE291E00197F1F78DE291E0E2
:104E10000197F1F762E082E00C9447271092170B9C
:104E20001092160B249A259A85B1836085B984B1B6
:104E3000876084B9239880E58CBD81E08DBD83E4D3
:104E400080938100B59AEFE6F0E0808181608083F5
:104E50008081806280830895CF93DF931F92CDB7C6
:104E6000DEB780689FB79983F89428988EBD0DB4FB
:104E700007FEFDCF8EB51EBC0DB407FEFDCF8EB56F
:104E8000289A99819FBF0F90DF91CF910895CF937A
:104E9000DF931F92CDB7DEB7806C9FB79983F894EC
:104EA00028988EBD0DB407FEFDCF8EB56EBD0DB436
:104EB00007FEFDCF8EB5289A89818FBF0F90DF91B5
:104EC000CF910895CF93DF9300D0CDB7DEB74A835B
:104ED00069830E942C276981862390E04A8102C061
:104EE000959587954A95E2F70F900F90DF91CF91B6
:104EF00008951F93CF93DF9300D000D0CDB7DEB7D6
:104F0000182F2C834B836A830E942C2789838981E5
:104F10006A81962F9095982399832C814B8101C0AB
:104F2000220F4A95EAF762238981682B812F0E941C
:104F300047270F900F900F900F90DF91CF911F9107
:104F40000895CF93DF931F92CDB7DEB72FB7298394
:104F5000F894289820E22EBD0DB407FEFDCF2EB5A3
:104F60001EBC0DB407FEFDCF4EB52DEF240F2D371F
:104F7000F0F49C012F5F3F4FFC0140831EBC0DB439
:104F800007FEFDCFF901240F3EB531931EBC0DB4D1
:104F900007FEFDCF2E13F8CF2EB5FC01E058FF4FD2
:104FA0002083FC01EF57FF4F21E0208309C0FC0163
:104FB0001082E058FF4F1082FC01EF57FF4F108224
:104FC000289A89818FBF0F90DF91CF910895CF9359
:104FD000DF931F92CDB7DEB72FB72983F8942898B7
:104FE00020E62EBD0DB407FEFDCF2EB56EBD0DB46F
:104FF00007FEFDCF2EB56250FC0181918EBD0DB430
:1050000007FEFDCF8EB56150C1F7289A89818FBF09
:105010000F90DF91CF9108951F920F920FB60F92CC
:1050200011240BB60F922F933F934F935F936F937F
:105030007F938F939F93AF93BF93EF93FF93CF9300
:10504000DF9300D0CDB7DEB78FB78983F894289867
:105050008FE88EBD0DB407FEFDCF1EBC0DB407FE5C
:10506000FDCF8EB5289A99819FBF82FD31C083FF05
:1050700020C081E00E942C278F718A838A81813130
:1050800049F08A81863031F08A81813019F08A8135
:105090008631F1F480911A1322E8829FC001112415
:1050A000845E9C4E0E94A12710921A130E94A02495
:1050B0000FC086FD0DC0982F937051F487FF08C074
:1050C0008EE00E942C27682F6F778EE00E94472782
:1050D0000F900F90DF91CF91FF91EF91BF91AF9122
:1050E0009F918F917F916F915F914F913F912F9100
:1050F0000F900BBE0F900FBE0F901F9018951F9230
:105100000F920FB60F9211248F939F938091160BDD
:105110009091170B01969093170B8093160B9F910C
:105120008F910F900FBE0F901F90189528E0FB01F4
:105130003191BF01FC013193CF012150C1F7089596
:10514000FB0128E0DC014D91CD013191431305C0F5
:105150002150C1F781E090E0089580E090E008954B
:10516000BC018FE993E10C949628E091B601F0918F
:10517000B7010994E091C601F091C7010994E0914B
:10518000BC01F091BD010994E091BE01F091BF0115
:10519000099480E090E008950895E0919801F091DD
:1051A0009901099480E090E00895AF92BF92CF9268
:1051B000DF92EF92FF920F931F93CF93DF93CDB7C0
:1051C000DEB7E0970FB6F894DEBF0FBECDBF8C01FF
:1051D0006B01CE0101967C0180E3F70111928A9563
:1051E000E9F781E089838CE00E94300A8C831D827C
:1051F0001F828091180B91E0980F9093180B89876C
:1052000083E0B82EB8868DEC9BEA9B878A8789E17C
:105210000E94440A6CE971E00E94A028892B31F0B9
:1052200082E08E838FEF8C878D8709C089E10E9491
:10523000440ABC01CE010C960E949628BE828DECD9
:105240009BEA9D8B8C8B6FE973E1CE0146960E94A1
:1052500096280E9413099FA78EA70E94600988AB19
:10526000C7010E94FC3FB82E90E00E947509892B6F
:1052700031F10E941A09BC014B2DC7010E941A404E
:10528000E0908E01F0908F010E946A095C010E94FB
:105290001A09B501F70109950115110581F000976B
:1052A00039F0019761F441E050E064E070E004C03F
:1052B00041E050E060E070E0C601F8010995E09639
:1052C0000FB6F894DEBF0FBECDBFDF91CF911F9117
:1052D0000F91FF90EF90DF90CF90BF90AF90089527
:1052E0000F931F93CF93DF9300D0CDB7DEB78C0120
:1052F0004115510591F0FA018281938169837A8386
:105300000E94130869817A81C8010F900F90DF9184
:10531000CF911F910F910C94D5280F900F90DF9192
:10532000CF911F910F9108950F931F93CF93DF9308
:10533000CDB7DEB7E0970FB6F894DEBF0FBECDBF96
:105340000E9460098C010E941309AE014F5F5F4FFC
:10535000602F0E940341882309F446C088A9980160
:10536000281B3109C9010E94F108892BE9F12E811E
:1053700021110CC0BE016A5E7F4F88E10E94390A8C
:10538000E091AA01F091AB0109952EC08A859B8519
:105390008D3C3BEA930711F0019631F5223019F06C
:1053A00088E090E002C082E090E001979C012F5FCE
:1053B0003F4F12161306F4F6E1E0F0E0EC0FFD1F8C
:1053C000E80FF91F23852F3F81F3BE01645F7F4FF4
:1053D00089E10E94390A89E10E94440A6FE973E178
:1053E0000E94A028892B31F6E0960FB6F894DEBF14
:1053F0000FBECDBFDF91CF911F910F9108950E94F5
:10540000412F8093180BE0919801F0919901099434
:10541000892B29F0E0919801F091990104C0E09165
:105420009A01F0919B0109941F93CF93DF93EC01B4
:10543000162FEC81FD813097D1F090931A0B809359
:10544000190B82E08887CE0106960995992787FD7A
:1054500090950297029710F0133839F4BE01CE01EF
:10546000DF91CF911F910C94412A81E08887DF91D1
:10547000CF911F910895FC01208520FD0C94142AE2
:105480000895CF92DF92EF92FF920F931F93CF93E5
:10549000DF93EC016B01E090190BF0901A0B009177
:1054A0001B0B10911C0BF801EC17FD0739F030971E
:1054B00009F44AC00190F081E02DF6CF209709F45D
:1054C00043C08885882309F118860115110561F00C
:1054D000C017D10729F0AE0167E8C8010E943B2A36
:1054E000F80100811181F1CFEC81FD81309769F0E5
:1054F000CC15DD0551F0D0931A0BC093190B40E089
:1055000050E063E8CE0106960995E0911B0BF091FF
:105510001C0BCE17DF0769F48881998190931C0BCF
:1055200080931B0B0DC0808191818C179D0721F00A
:10553000FC013097C1F704C08881998191838083F1
:10554000F0921A0BE092190BDF91CF911F910F91FE
:10555000FF90EF90DF90CF9008951F93CF93DF934C
:105560001092250BC0911B0BD0911C0B11E02097C2
:1055700079F08985882341F01887198640E050E04A
:1055800062E8CE010E94142A0990D881C02DEFCF85
:10559000DF91CF911F9108958091C80B91E0980FF2
:1055A0009093C80B08956091190B70911A0B0C948D
:1055B000412A8AE88093C80B1092C60B1092C70B41
:1055C00010921C0B10921B0B10921A0B1092190BBD
:1055D00008958091250B81110E94AD2A7091C70B0F
:1055E000772309F451C0E091C60B2E2F30E085E0FF
:1055F000E89FF0011124EA5DF44F60816093240B71
:10560000418152815093230B4093220B83819481DB
:105610009093210B8093200B2F5F3F4F2F713327E7
:105620002093C60B71507093C70B009731F5809192
:105630001B0B90911C0B90931F0B80931E0B809162
:105640001E0B90911F0B892BF9F08091250B811176
:105650000E94AD2A4091220B5091230B6091240BA4
:1056600080911E0B90911F0B0E943B2AE0911E0B14
:10567000F0911F0B80819181DECF613819F421E018
:10568000FC0120870E943B2A8091250B2091C70BAB
:1056900090E0820F911D08958091250B2091C70BFA
:1056A00090E0820F911D08952091C70B2032B9F030
:1056B000E091C60BE20FEF71E0931D0B35E0E39F25
:1056C000F0011124EA5DF44F608352834183948397
:1056D00083832F5F2093C70B80E090E0089581E0E3
:1056E00090E00895CF93DF93C091190BD0911A0BDE
:1056F0000E943B2AD0931A0BC093190BDF91CF91D4
:105700000895AB0130911B0B20911C0BE32FF22F5E
:10571000E817F907B1F0309721F00190F081E02D02
:10572000F7CF009771F0FC013083218390931C0B1D
:1057300080931B0B21E020871782168261E80C946E
:10574000722B0895009749F0FC01208521502230EA
:1057500020F421E021872093250B089521E030E0FB
:10576000FC018085811102C020E030E0C90108956C
:10577000CF93DF93EC014A815B8160E070E08C8124
:105780009D810E9415452A813B8188819981289FAE
:10579000A001299F500D389F500D112460E070E04A
:1057A0008E819F81DF91CF910C941545FC01828100
:1057B000938120E030E028173907D1F0A481B5812A
:1057C000A20FB31F4C91411110C081E08C938081D6
:1057D0009181289FA001299F500D389F500D1124C1
:1057E00086819781840F951F08952F5F3F4FE3CFE8
:1057F00080E090E00895FC01268137814281538149
:1058000080E090E084179507C9F02617370781F4E8
:10581000A481B581A80FB91F2C91121614F4215040
:105820002C930480F581E02DE80FF91F8081089505
:10583000A081B1812A0F3B1F0196E4CF8FEF08951D
:10584000FC018681978168177907A0F0A081B1815A
:1058500042815381A49F9001A59F300DB49F300DCC
:105860001124280F391F81E090E06217730720F0A0
:1058700080E0089580E090E008958091CB0B9091B6
:10588000CC0B892B29F41092CA0B1092C90B0895E6
:105890000E948620E091CB0BF091CC0B22813381CA
:1058A00040815181240F351F281B390B0480F5815D
:1058B000E02D309769F04281538160817181460FFC
:1058C000571F481B590B4217530780F79A01EECF19
:1058D000280F391F3093CA0B2093C90B08958CE50C
:1058E00091E00C94A22BEF92FF920F931F93CF9312
:1058F000DF938C01FC0180819181009799F08A35BA
:105900009105D9F0F8011182108283E068C0868188
:1059100097818417950709F049C00480F581E02D2F
:105920003097A9F71092CC0B1092CB0B8AE590E040
:10593000F8019183808381E052C0673891F1623829
:10594000A9F7C091CB0BD091CC0BE12CF12C209777
:1059500069F3CE010E94F041892BF1F0AE0168E8B5
:105960008E819F810E94542B892BA1F41F821E825D
:105970008C819D81E114F10421F0F70195838483EA
:1059800004C09093CC0B8093CB0B1D821C820E9491
:105990003D2CD7CF0E946F2C7E010C80DD81C02D65
:1059A000D6CFE091CB0BF091CC0BBACFF093CC0BD0
:1059B000E093CB0BA481B581109709F4B7CF16966D
:1059C0008D919C9117978417950711F0FD01F2CFE7
:1059D00014968D919C91159795838483EBCFDF91DD
:1059E000CF911F910F91FF90EF900895CF93DF9388
:1059F000EC010E946F2C8E819F813091CB0B209106
:105A0000CC0B892B59F0E32FF22F309739F0EC179C
:105A1000FD0781F00480F581E02DF7CF8091190B0F
:105A200090911A0B9F838E833C832D83D093CC0B54
:105A3000C093CB0BDF91CF910C943D2CCF93DF9390
:105A4000EC010E94D041CE01DF91CF910C94F62C55
:105A5000CF93DF93EC010E94DC41CE01DF91CF9127
:105A60000C94F62CCF93DF93EC010E94E641CE011B
:105A7000DF91CF910C94F62CFC0120813181260F0F
:105A8000371F318320830C943D2C21E030E0FC0152
:105A900086819781892B11F020E030E0C9010895BB
:105AA000FC012281338180819181820F931F0895AF
:105AB000FC0180819181089581E090E02091CB0BE1
:105AC0003091CC0B232B11F480E090E0089580916D
:105AD000CB0B9091CC0B892B29F08091C90B909125
