:020000040020DA
:10000000904400208D0220007BBB200079BB2000A3
:1000100079BB200079BB200079BB200000000000E4
:1000200000000000000000000000000055D120008A
:1000300079BB20000000000073D120006DBD2000BE
:100040007FBD200085BD20008BBD200091BD20001C
:100050000000000073BD200079BD200079BB2000A6
:1000600079BB20000000000000000000000000003C
:10007000000000000000000079BB2000000000002C
:10008000000000000000000079BB200079BB2000C8
:1000900079BB200079BB200079BB200079BB200010
:1000A00079BB200079BB200079BB200079BB200000
:1000B00079BB200079BB200079BB200079BB2000F0
:1000C00079BB200079BB200079BB200079BB2000E0
:1000D00079BB2000000000000000000000000000CC
:1000E0000000000000000000000000000000000010
:1000F000000000000000000095302000A530200026
:1001000000000000000000000000000000000000EF
:1001100000000000000000000000000000000000DF
:1001200000000000000000000000000000000000CF
:1001300000000000000000000000000000000000BF
:1001400000000000000000000000000000000000AF
:10015000000000000000000000000000000000009F
:10016000000000000000000000000000000000008F
:10017000000000000000000000000000000000007F
:10018000000000000000000000000000000000006F
:10019000000000000000000000000000000000005F
:1001A000000000000000000000000000000000004F
:1001B000000000000000000000000000000000003F
:1001C000000000000000000000000000000000002F
:1001D000000000000000000000000000000000001F
:1001E000000000000000000000000000000000000F
:1001F00000000000000000000000000000000000FF
:1002000000000000000000000000000000000000EE
:1002100000000000000000000000000000000000DE
:1002200000000000000000000000000000000000CE
:1002300000000000000000000000000000000000BE
:1002400000000000000000000000000000000000AE
:10025000000000000000000000000000000000009E
:10026000000000000000000000000000000000008E
:1002700079BB2000792F20009D2F20001926200017
:10028000153220002921200079BB200008B5094B38
:10029000FF221A600848094A4824E369121A0849EB
:1002A00098470848084AA369121A0021984701F0A4
:1002B000CDFBFEE7B4200D4040000020BD0700202C
:1002C000E0DF2000C00700208C3C002010B5044671
:1002D000436E9847034BE06E00221978BDE810404A
:1002E00004F0CCB8763C00202DE9F04F0C4685B0E8
:1002F00017461E46002B00F0698191F8B0341BB1FF
:1003000001F595600BF04FFC94F8B1346BB93B7874
:10031000012E84F8B134D4F8AC3403F10103C4F8ED
:10032000AC3400F05381012500E0002594F8B73487
:100330005BBB7819AE4240F24981D4F8AC3494F8F2
:10034000B82401330132052B10F8011B05F101051A
:10035000C4F8AC3484F8B82405D9002280212046A2
:10036000FFF7B4FF32E194F8B634B4F8B2E401F028
:100370007F0202FB03E2DB0184F8B6340B06A4F82B
:10038000B224D7D4012384F8B734B4F8B224B2F538
:10039000007F05D994F8B13403F0F003302B04D179
:1003A0004FF001084FF000092FE0D4F8AC340132CF
:1003B0001E449642C4F8AC64C0F0088103E102F028
:1003C000F002302A2BD094F8B904731BC0F5007AE0
:1003D0009A4528BF9A4620445246791900F2BA40FD
:1003E0000BF03CF8D4F8AC3494F8B924534452449C
:1003F00084F8B924C4F8AC3455440022D1B28A45FB
:1004000002F10102FAD8AE4261D9B4F8B224D4F8AC
:10041000AC340132934294F8B124D0D35DE094F827
:10042000BF26002ACFD194F8BE269AB97A5D691CFE
:100430001202581CB142A4F8BA26C4F8AC0444D243
:10044000795C02330A430235A4F8BA26C4F8AC3406
:1004500084F8BE86B4F8BEA6BAF1010FB3D1B4F8E1
:10046000BC06B4F8BA26C5EB060B121A934528BF92
:10047000934620441FFA8BF31A46791900F2C460A0
:1004800001930AF0EBFFD4F8AC24019BB4F8BA1640
:100490001D441344B4F8BC26C4F8AC345A4492B298
:1004A0009142A4F8BC260DD1631884F8BFA683F846
:1004B000C496B4F8B234023B5B1A9BB2A4F810376E
:1004C000A4F8123784F80E877DE70D467BE7B4F871
:1004D000B2240132934298D278E002F0F003502B1C
:1004E0006CD006D8302B38D0402B45D0202B6AD189
:1004F00019E0702B62D002D8602B5FD063E0902BA4
:100500004FF0010247D0B02B5DD184F8992294F8C6
:10051000BB3494F8BA24032143EA0223A4F8B43488
:1005200004F2B4424CE094F8BB342BB104F2BB4269
:1005300082212046FFF7CAFEE18A012384F899321E
:10054000244A2346C90104F1180003F09DFD082345
:10055000002284F86030114632E004F2BA43C4F855
:10056000083794F8B9342046A4F80C370023A4F8CF
:1005700012370BF022FB26E0012394F8BA2484F80A
:10058000993294F8BB34052143EA0223A4F8B43429
:1005900004F2B44214E084F8992294F8BB3494F83D
:1005A000BA24022143EA022394F8BC24ADF80C30AB
:1005B0008DF80E20A4F8B43403AA01E000228421AF
:1005C0002046FFF783FE012384F8B034002005B0F5
:1005D000BDE8F08FD905200010B590F838308BB108
:1005E00000F22C74022380F8603020460BF00DFFDF
:1005F000204607F02DFB2046BDE8104034220021A4
:100600000BF006B8034B0246BDE8104019780248CB
:1006100003F034BFDC1E00206804002030B504461F
:100620000523002580F86030012385B0A0F86830EC
:10063000A0F89C5280F8385000F595600BF0B3FAA2
:100640000E4B84F8745203930D4B04F22C750293F5
:1006500004F174024FF400730092214604F2A622C2
:100660000193284607F07AFA2846B4F8282704F5BB
:10067000E36105B0BDE8304007F0A6BA850620006A
:10068000E902200013B50C468DF80720042A3BD858
:10069000DFE802F0200303032D001C4B0A461C4830
:1006A000197803F0EBFE032384F8603004F118009E
:1006B00003F02CFD0DF1070201212046FFF706FE95
:1006C00020460BF092FA637D012B1DD12046FFF7E7
:1006D000A5FF19E0062381F86030012381F8743208
:1006E0000C4B0A460A48197803F0C8FE0CE0B1F832
:1006F0004E372BB9012381F8743201F174030B6773
:1007000004F1180003F0E6FC02B010BDE41E002066
:1007100068040020DF1E002038B51D4C2578002D10
:1007200034D103F03FFE1B4B18701B4B187003F0C5
:1007300039FE1A4B187003F035FE194B187003F090
:1007400031FE184B187003F02DFE174B187003F094
:1007500029FE164B187003F025FE154B187003F098
:1007600021FE144B187003F01DFE134B1870134B31
:10077000187003F017FE124B187012480BF0C1FCF2
:100780002946114803F0A2FE0123237038BD00BFA3
:10079000E21E0020E71E0020DD1E0020DF1E0020DC
:1007A000E31E0020E51E0020E61E0020E01E0020C3
:1007B000DC1E0020763C0020E41E0020DE1E00200F
:1007C000E11E0020D407002068040020F8B51F4671
:1007D000137804460E46154633B34FF4EC620021FD
:1007E0000AF016FF294604F10C000BF065FABDF87B
:1007F0001820012300256375A4F8A422A4F868300A
:1008000004F595606766E666A4F89C5284F8385053
:100810000BF0C9F984F87452FFF77EFF21460348B4
:100820000BF08FFC2846F8BD8220F8BDD4070020CD
:100830007FB50446084694F8601003291DD8E3826A
:1008400004F174032367002384F89932237DA4F80C
:10085000282743F0020323756946C4F8140704F5FA
:10086000E3660BF0DEFD9DE80F0086E80F00044B09
:1008700022461978034803F001FE002004B070BD41
:10088000E71E00206804002090F860300246082B24
:1008900007D1092380F86030024B0348197803F030
:1008A000EDBD7047E31E0020680400202DE9F341F0
:1008B0008DF8071040F2A741038806468B42154683
:1008C00000F02A83B3F5956F0CD240F282418B423F
:1008D0001ED040F299418B4200F00983002B40F07A
:1008E000AF8069E040F2C6418B4200F00D8405D82C
:1008F00040F2B9418B4200F09283A1E040F2D34133
:100900008B4200F06A85B3F59C6F00F0898697E012
:10091000BF4B9DF807201B789A4207D1BD4B284654
:100920001D600A2385F860300BF05FF9BA4B9DF823
:1009300007201B789A4204D1B64B28461D60FFF76A
:100940006DFEB64B9DF807201B789A4237D0B44A0B
:100950009DF807301178994206D1AE4B1D6095F88D
:100960006030092B00F0E982AE4B9DF807201B7820
:100970009A4200F04483AC4B9DF807201B789A42C2
:1009800000F0B283A94B9DF807201B789A4206D14C
:10099000A04B1D6095F87432012B00F01585A44B17
:1009A0009DF807201B789A4206D19A4B1D6095F856
:1009B0007432012B00F01F8640F282433CE0954BDD
:1009C0001D60B5F8A432A5F8543795F87432012BA0
:1009D000BDD10023A5F89C328E4F3C68B4F89C3200
:1009E000B3F5D17F00F08B8157D8B3F5CD7F00F000
:1009F0000A8132D840F29712934200F0D980B3F5C1
:100A0000CC7F22D2002B00F08E80B3F5CA7F40F05D
:100A10006A8294F87432002B40F0B3803B6893F8FC
:100A200060300A2B93D0834B00221978824B1868D0
:100A300003F024FD40F299433380012000F031BFE0
:100A400000233380032000F02CBF00F0BF8040F271
:100A50009912934200F0C88045E240F29D12934201
:100A600000F01481B3F5CF7F09D240F29B1293427C
:100A700000F0EF80B3F5CE7F00F0F98033E240F272
:100A80009F12934200F01E81B3F5CF7F40F20C819C
:100A9000B3F5D07F00F0248125E240F2B3129342F7
:100AA00000F0A281B3F5DA7F20D240F2A712934280
:100AB00000F05A81B3F5D47F09D2B3F5D27F00F0AC
:100AC000348140F2A512934200F03E810BE240F2E5
:100AD000A912934200F06581B3F5D47F40F25281B0
:100AE00040F2AB12934200F06D81FCE1B3F5DD7F83
:100AF00000F0BC8109D8B3F5DA7F00F0848140F2C0
:100B0000B712934200F09081EDE1B3F5DF7F00F082
:100B1000CD81B3F5E57F00F0CE8140F2BB12934268
:100B200040F0E181B1E1228A102384F8783202B1E9
:100B3000023202F10C03B4F8542002B10232134421
:100B4000B4F85C2002B102321344B4F8402002B180
:100B500002321344B4F8482002B102321A44C4F8F5
:100B60007C2204F5217104F520700BF009F894F84B
:100B70008432042B05D9002281212046FFF7A6FBF1
:100B8000B1E194F8781220460BF05FF820B14FF4F1
:100B9000CA73A4F89C323CE794F8842204F52071CF
:100BA00020460BF062F840B140F29713A4F89C3253
:100BB00094F87432002BEFD130E7002120460BF07F
:100BC00044F840B14FF4CC73A4F89C3294F87432DA
:100BD000002BF2D122E7062120460BF036F840B177
:100BE00040F29913A4F89C3294F87432002BF2D19D
:100BF00014E70622114920460BF037F800B34FF4F2
:100C0000CD73A4F89C3294F87432002BF1D105E72F
:100C1000E41E0020D0070020E71E0020DF1E002079
:100C2000E31E0020DC1E0020E51E0020E61E002042
:100C3000E01E0020E11E00201C090020CDD920006C
:100C4000032120460BF001F840B140F29B13A4F8B9
:100C50009C3294F87432002BF2D1DFE6217D2046DD
:100C60000AF0F3FF40B14FF4CE73A4F89C3294F82D
:100C70007432002BF2D1D1E6E18A2046090A0AF04B
:100C8000E4FF40B140F29D13A4F89C3294F8743212
:100C9000002BF1D1C2E6A17D20460AF0D6FF40B17B
:100CA0004FF4CF73A4F89C3294F87432002BF2D135
:100CB000B4E6002120460AF0C8FF40B140F29F137D
:100CC000A4F89C3294F87432002BF2D1A6E6217C71
:100CD00020460AF0BAFF40B14FF4D073A4F89C321A
:100CE00094F87432002BF2D198E6228AE16820460B
:100CF0000AF0BBFF40B14FF4D173A4F89C3294F8D2
:100D00007432002BF1D189E6237D5A0704D494F97B
:100D10001430002B5BDA5EE0002120460AF095FFDC
:100D200040B14FF4D273A4F89C3294F87432002B83
:100D3000F2D173E694F8401020460AF086FF40B1E5
:100D400040F2A513A4F89C3294F87432002BF1D130
:100D500064E6B4F84020E16B20460AF086FF40B11B
:100D600040F2A713A4F89C3294F87432002BF0D10F
:100D700054E6002120460AF068FF40B14FF4D473D6
:100D8000A4F89C3294F87432002BF2D146E694F821
:100D9000481020460AF059FF40B140F2A913A4F8C8
:100DA0009C3294F87432002BF1D137E6B4F8482025
:100DB000616C20460AF059FF0028A8D040F2AB131E
:100DC000A4F89C3294F87432002BEFD126E6237DF0
:100DD0005B0642D42DE0002120460AF036FF40B1E8
:100DE00040F2B313A4F89C3294F87432002BF2D181
:100DF00014E694F8541020460AF027FF40B14FF44F
:100E0000DA73A4F89C3294F87432002BF1D105E621
:100E1000B4F85420216D20460AF027FF0028D6D0D0
:100E200040F2B713A4F89C3294F87432002BEFD13F
:100E3000F4E520460AF0F8FE072384F860304FF40A
:100E4000A061201D0BF03DF904F595600AF0ABFEA2
:100E50004FF4E573A4F89C322DE0002120460AF0FF
:100E6000F4FE40B14FF4DD73A4F89C3294F8743270
:100E7000002BF2D1D2E594F85C1020460AF0E5FE92
:100E800040B140F2BB13A4F89C3294F87432002BAA
:100E9000F1D1C3E5B4F85C20A16D20460AF0E5FE6F
:100EA0000028C6D04FF4DF73A4F89C3294F8743253
:100EB000002BEFD1B2E594F8993204F10408012B2C
:100EC00007D140460BF00FF948B12046FFF7DCFC94
:100ED00005E040460BF007F90028F2D19EE504F545
:100EE00095600AF060FE0023A4F89C322FE5BB4B0E
:100EF0009DF807101B788B4214D0B94B1B788B429E
:100F00003FF66AADB74B1B788B42FFF465ADB64B2D
:100F1000186803F0B3FA5FE5B04B9DF807101B7833
:100F20008B4212D1B14B0A221B68022083F8602049
:100F30000022A3F89C2200F0B4BC95F87432012B77
:100F400058D10023A5F89C3204E0A54B1B788B42B6
:100F500040F2E88140F2E512A44F3C68B4F89C32BC
:100F6000934212D0B3F5F37F01D22BB135E01AD002
:100F7000B3F5F87F28D030E0E02120460AF065FE86
:100F800040B140F2E513A4F89C3294F87432002B7F
:100F9000F2D1D1E1002120460AF057FE40B14FF4D2
:100FA000F373A4F89C3294F87432002BF2D1C3E1AD
:100FB00020460AF039FE4FF48071201D0BF081F8B5
:100FC0004FF4F873A4F89C3294F874322BB9201DB6
:100FD0000BF089F8002800F0AF810023A4F89C32C0
:100FE00038680AF002FE0DF1070201213868FFF7A8
:100FF0006DF9B9E42A467E4803F040FAB4E47B4B2D
:101000001D6095F87432012B7FF4B5AC95F8603013
:10101000082B7FF4B0AC0023A5F89C320BE06F4B9B
:101020009DF807101B788B423FF47CAF6C4B1B780C
:101030008B4240F2928140F2D2216C4A14681746EA
:10104000B4F89C328B4214D001D84BB148E040F246
:10105000D32293421BD040F2DE2293422FD03FE0B6
:10106000C02120460AF0F1FD40B140F2D223A4F89D
:101070009C3294F87432002BF2D178E100212046A2
:101080000AF0E3FD40B140F2D323A4F89C3294F877
:101090007432002BF2D16AE120460AF0C5FD01232B
:1010A00084F8383004F595600AF07DFD4FF4A061B6
:1010B000201D0BF006F840F2DE23A4F89C3294F8D1
:1010C000B0343BB104F595600AF06DFD002384F85F
:1010D000383005E0201D0BF006F80028F2D146E17B
:1010E0000023A4F89C3246E4404B1D6095F874320E
:1010F000012B7FF447AC95F86030082B7FF442ACAD
:101100000023A5F89C320BE0344B9DF807101B78A8
:101110008B423FF407AF324B1B788B4240F2388151
:1011200040F21622314B1C689846B4F89C729742E4
:1011300000F089800ED8B7F5047F49D001D817B3E5
:10114000EBE040F213239F4260D040F215239F4210
:101150006AD0E2E040F21B239F4200F0A480B7F582
:10116000077F08D2B7F5067F7DD040F219239F4252
:1011700000F08880D1E000F0A58040F225239F4256
:1011800000F0B580C9E0B4F88C228223053284F8DF
:101190007832C4F87C2204F5217104F520700AF03D
:1011A000EFFC94F88432042B08D93A46812120467A
:1011B000FFF78CF8A4F89C72FFF7E4BB94F8781260
:1011C00020460AF042FDA8B14FF40473A4F89C3203
:1011D00094F87432002BF1D1E4E000BFE41E00204B
:1011E000DD1E0020DE1E00201C090020D00700208C
:1011F0006804002094F8842204F5207120460AF047
:1012000034FD40B140F21323A4F89C3294F87432B8
:10121000002BEFD1C6E0002120460AF016FD40B1B8
:1012200040F21523A4F89C3294F87432002BF2D1CA
:10123000B8E094F8861220460AF007FD40B140F26B
:101240001623A4F89C3294F87432002BF1D1A9E053
:10125000B4F88C122046090A0AF0F7FC40B14FF4AA
:101260000673A4F89C3294F87432002BF0D199E004
:1012700094F88C1220460AF0E8FC40B140F21923A1
:10128000A4F89C3294F87432002BF1D18AE0B4F8BF
:101290008C22D4F8881220460AF0E7FC40B140F2D4
:1012A0001B23A4F89C3294F87432002BEFD179E020
:1012B00094F8981220460AF0C8FC40B14FF4077326
:1012C000A4F89C3294F87432002BF1D16AE02046E5
:1012D0000AF0AAFC4FF4A061201D0AF0F2FE04F50A
:1012E00095600AF060FC40F22523A4F89C3294F843
:1012F0009932271D012B0AD138460AF0F4FE04F575
:1013000095600AF050FC002384F86A3005E0384606
:101310000AF0E9FE0028EFD144E00023A4F89C3253
:10132000FFF730BBB84B1B788B42FFF413AEB74BC3
:10133000186803F0A3F80DE63B6893F860300A2BB9
:101340003FF44EAEB24B00221978B04B186803F050
:1013500095F840F2A743FFF76FBBAB4B1B788B426E
:10136000FFF469AEA94B186803F088F863E63B68A0
:1013700093F86030082B7FF4FEAAA54B0022197861
:10138000A24B186803F07AF840F2B943FFF754BB58
:101390009D4B1B788B42FFF4C3AE9C4B186803F047
:1013A0006DF8BDE6D8F8003093F86030082B7FF474
:1013B000E9AA974B00221978944B186803F05EF85D
:1013C00040F2C643FFF738BB95F86030082B7FF436
:1013D000E6AA0023A5F89C320BE08E4B9DF807107F
:1013E0001B788B423FF49EAD8B4B1B788B4240F2B7
:1013F000E6808A4B1C689846B4F89C72B7F5157F56
:101400007DD011D840F24F239F424AD0B7F5147FC8
:1014100001D20FB3CEE040F251239F4252D040F2AE
:1014200053239F425CD0C5E040F257239F4200F017
:101430008580B7F5167F04D240F256239F426ED0C6
:10144000B8E040F259239F4200F0898040F26223C5
:101450009F4200F09980ADE0B4F88C22A2230432C0
:1014600084F87832C4F87C2204F5217104F52070E8
:101470000AF086FB94F88432042B08D93A4681217D
:101480002046FEF723FFA4F89C72FFF788BA94F871
:10149000781220460AF0D9FB40B140F24F23A4F85D
:1014A0009C3294F87432002BF1D192E094F88422AB
:1014B00004F5207120460AF0D8FB40B140F25123D8
:1014C000A4F89C3294F87432002BEFD181E0002113
:1014D00020460AF0BAFB40B140F25323A4F89C32F4
:1014E00094F87432002BF2D173E094F886122046FF
:1014F0000AF0ABFB40B14FF41573A4F89C3294F89A
:101500007432002BF1D164E0B4F88C122046090A41
:101510000AF09BFB40B140F25623A4F89C3294F8A9
:101520007432002BF0D154E094F88C1220460AF06B
:101530008CFB40B140F25723A4F89C3294F87432EB
:10154000002BF1D145E0B4F88C22D4F88812204663
:101550000AF08BFB40B140F25923A4F89C3294F876
:101560007432002BEFD134E020460AF05DFB4FF4DB
:10157000A061201D0AF0A5FD04F595600AF013FB9B
:1015800040F26223A4F89C3294F89932271D012B73
:101590000AD138460AF0A7FD04F595600AF003FB6E
:1015A000002384F86A3005E038460AF09CFD0028E4
:1015B000EFD10EE00023A4F89C32FFF7F0B9124BF4
:1015C0001B788B42FFF415AF104B186802F056FFE2
:1015D0000FE7D8F8003093F86030082B7FF4DFA9CC
:1015E0000B4B00221978094B186802F047FF40F2B4
:1015F000D343FFF721BA95F86030082B7FF4DCA9BC
:101600000023A5F89C3217E0DE1E00201C090020F4
:10161000E11E0020E41E0020DD1E0020D007002077
:10162000A14B9DF807101B788B423FF47BAC9F4B7E
:101630001B788B4240F21A819D4D2C68B4F89C3285
:10164000B3F5267F00F0958011D840F293229342A3
:101650005FD0B3F5257F01D223B302E140F295229A
:10166000934267D040F29722934273D0F9E040F260
:101670009D22934200F0AE8009D840F29A22934214
:1016800000F08880B3F5277F00F09580E9E040F214
:10169000A222934200F0AF8040F2B322934200F0C6
:1016A000CA80DEE094F8982294F89A12530043F02E
:1016B0003003DBB2012984F8783204BF43F0010320
:1016C00084F87832B4F88C12D4F894320B440AB906
:1016D000023300E00433C4F87C32D4F87C2204F5F1
:1016E000217104F520700AF04BFA94F88432042B2F
:1016F00005D9002281212046FEF7E8FDB1E094F8EB
:10170000781220460AF0A1FA40B140F29323A4F8DF
:101710009C3294F87432002BF1D1B1E094F8842219
:1017200004F5207120460AF0A0FA40B140F295235A
:10173000A4F89C3294F87432002BEFD1A0E0B4F8F6
:101740008C122046090A0AF080FA40B140F2972331
:10175000A4F89C3294F87432002BF0D190E094F805
:101760008C1220460AF071FA40B14FF42673A4F8A7
:101770009C3294F87432002BF1D181E0B4F88C22C1
:10178000D4F8881220460AF070FA40B140F29A2349
:10179000A4F89C3294F87432002BEFD170E094F8E6
:1017A0009832E3B1002120460AF04FFA40B14FF4DD
:1017B0002773A4F89C3294F87432002BF2D15FE0C6
:1017C00094F8861220460AF040FA40B140F29D2378
:1017D000A4F89C3294F87432002BF1D150E0B4F8A4
:1017E0009422D4F8901220460AF03FFA40B140F219
:1017F000A223A4F89C3294F87432002BEFD13FE07E
:1018000020460AF011FA4FF4A061201D0AF059FC9D
:1018100094F898222AB9274BE06E197802F02EFE30
:1018200018E0012A16D104F595600AF0BCF940F2DF
:10183000B323A4F89C3294F89932271D012B03D1CD
:1018400038460AF050FC05E038460AF04CFC002807
:10185000F6D115E004F595600AF0A5F9002384F8A7
:101860006A300023A4F89C32FFF7A6B8124B1B780D
:101870008B42FFF4E1AE114B186802F0FFFDDBE68E
:101880002B6893F86030082B7FF496A80C4B00224D
:1018900019780A4B186802F0F1FD4FF49C63FFF7CA
:1018A000CBB802B0BDE8F081E41E0020DD1E0020B0
:1018B000D0070020763C0020DE1E00201C090020FE
:1018C000E11E002070B51E4690F860300446082BDB
:1018D00020D190F86A500121F5B980F86A10B0F86B
:1018E0006810C0F88822023189B2A0F86810A0F808
:1018F000861210460AF016F8084BA4F88C0284F8F9
:10190000986284F8995222461978054802F0B6FD8B
:10191000284670BD812070BD084670BDE51E0020C0
:101920006804002038B590F860300446082B1ED1BA
:1019300090F86A500123E5B980F86A30B0F8683051
:10194000C0F8882202339BB2A0F86830A0F8863233
:10195000104609F0E7FF084BA4F88C0284F899526E
:1019600022461978054802F089FD284638BD8120B5
:1019700038BD184638BD00BFE61E002068040020B0
:1019800070B51E4690F860300446082B2BD190F8B5
:101990006A5001214DBB80F86A10B0F868109DF8BC
:1019A0001830023189B2A0F86810A0F8861280F8C9
:1019B0009A32C0F88822104609F0B4FF049BA4F8BC
:1019C0008C02C4F894329DF81430C4F8906284F804
:1019D0009832074B84F8995222461978054802F04C
:1019E0004DFD284670BD812070BD084670BD00BF0A
:1019F000E01E00206804002008B500F019F8024B32
:101A000000221A7008BD00BFE81E0020024A1378A9
:101A10001843107000F014B8E81E0020034A137831
:101A200023EA0000107000F00BB800BFE81E002091
:101A3000024A136843F00F031360704700B40D406F
:101A4000014B1860704700BF3CB00D40F7B500F087
:101A5000BBFC00F075FD00F0D1FC00F0C5FA01F010
:101A6000C7FB0AF025FB00F063FDFFF7C5FF02206E
:101A70000AF02EF902F09EFC00F092FC00F0FAF958
:101A8000002000F0ABFB012000F0A8FB464900203D
:101A900000F070FC02F0E4FD62B604200AF018F9D0
:101AA00042480AF099F942480AF096F900F03EFAE5
:101AB000404801F0B9FE404B404C18680AF08CF9E0
:101AC0003F4801F0B1FE3F4B002518680AF084F949
:101AD0003D4801F0A9FE3D4B18680AF07DF9002051
:101AE00002F0E0FD01F06EFA0021394802F0EEFC50
:101AF00002F094FA0821684601F0A0FB9DF8073037
:101B00009DF8067043EA07276B4603CB20606160AF
:101B1000304801F089FE615D2F48013501F084FEF7
:101B2000072D264EF7D12D4DF1792D4801F07CFE81
:101B3000EC6A4AF6CD310220A04739460320A0477F
:101B400019210120A04769466B6B08220B2098479A
:101B500000F086FD00F0A2FD07F070FE214A336818
:101B600013607368536007F0A3FF00211E4802F062
:101B7000ADFC00F007FD00211C4802F0A7FC0AF0B4
:101B80006DFA1B480AF060FA00F010FC08200AF019
:101B90009FF800F011FC02F025FC10F0FF0FF8D1C7
:101BA00001F0BAFAF5E700BF1D462000E1D9200098
:101BB000F1D9200009DA20004CD82000843C002014
:101BC00010DA200058D8200017DA200080D8200032
:101BD000D40400201EDA20003CDA2000F4D72000D4
:101BE00042DA2000BC28002058050020780400209C
:101BF000B0D820002DE9F04106880546772E31D077
:101C00007E2E40D0002E4ED12B4C02F0CBFB266016
:101C100026462A4B2A4FDFF8B0801870236857F801
:101C200023204AB1002108F80310936880209847C8
:101C3000336801333360F1E7224A1370772320E0E1
:101C4000214AD256002A12DB1B4A13680133136063
:101C5000194B1C4A1B6812789A42F1DC1B4B1B681B
:101C6000002BEBD0194A00231360134AEFE7144A04
:101C7000002052F82320114B197802F0FFFB30B9F5
:101C80007E232B8014E00D4B1B788B4210D10A4B26
:101C90000D491A688B5C03F07F038B540B4A136861
:101CA00001331360D0E7002303800320BDE8F081F7
:101CB0000120BDE8F08100BFD8070020773C00205C
:101CC00088040020E91E0020783C0020DC0700206A
:101CD00010B40A4B0A491A780023934203DA51F8E8
:101CE0002340A04208D107490748CA5C62F07F023E
:101CF000CA5410BC02F002BC0133EEE7E91E00201A
:101D000088040020783C00207804002010B50821C9
:101D100008480AF009F804220321002000F01EFC04
:101D2000054B01241C6003220021044800F0B8FB8D
:101D3000204610BD00900D4000E100E0111E200083
:101D400008B51021084809F0EFFF042211460220CF
:101D500000F004FC054B04221A600221044800F044
:101D60009FFB012008BD00BF00B00D4000E100E076
:101D7000111E200008B52021084809F0D5FF0422D3
:101D80000521022000F0EAFB054B04221A60022123
:101D90000522044800F084FB012008BD00B00D407E
:101DA00000E100E0111E200008B54021084809F0BC
:101DB000BBFF04220621022000F0D0FB054B0422C9
:101DC0001A6002210622044800F06AFB012008BDC7
:101DD00000B00D4000E100E0111E200008B5802198
:101DE000084809F0A1FF04220721022000F0B6FBF9
:101DF000054B04221A6002210722044800F050FB20
:101E0000012008BD00B00D4000E100E0111E2000DF
:101E100038B5054611480C460AF065F9E8B11021BD
:101E20000E480AF04EF91DB9032C16D10C4810E0EB
:101E3000022D12D1042C01D10A480AE0052C01D14F
:101E4000094806E0062C01D1084802E0072C04D11D
:101E50000748BDE83840FFF73BBF38BDE00700202A
:101E6000BCD62000DCD62000ECD62000CCD620004A
:101E7000FCD62000002101480AF023B9E007002029
:101E800010B5074CFF2323604FF4FA6000F0E6F82A
:101E900030220021062000F07DFB0023236010BDCE
:101EA00000920D40802870B51ED1104E104D336841
:101EB000002423F0800333602B68224643F0800324
:101EC0002B600C4B07211C60204600F047FB336859
:101ED000012223F0400333602B68062123F04003E6
:101EE0002B60204600F03AFB002070BD20940D408E
:101EF00000940D4000920D40044B1868C0F3072079
:101F0000030904BF1030C0B2704700BF1C300D4041
:101F1000054B1868C0F3C21001289ABFC0F1020037
:101F200040034FF40040704714300D402DE9F04756
:101F300088B0FFF7E1FF174B48251C68AB680746E0
:101F400098476B68804698470546FFF7E1FF0646CD
:101F500000F08EFA814600F097FA824600F044FACB
:101F6000B60A04F00103AD0AC4F3400406900393DB
:101F7000CDF814A0CDF8109002940196009507F0CA
:101F80000F03C7F307124146034801F04DFC08B0A8
:101F9000BDE8F0871C300D405BDA2000F8B500F09A
:101FA00081F80F4B0024D3E900673A46B04238BFAE
:101FB0007A1C15460443C3E90045DFF828E0DEE952
:101FC0000001821B61EB070312196B41CEE900236C
:101FD00002F050F918B1BDE8F84002F0CFB8F8BDF2
:101FE000C0070020C80700200D4B0E4AE0215A60B0
:101FF0000D4A82F82310002207219A6019600B49CC
:102000000B6843F001030B60094B1A60042243F88C
:102010000C2C012243F8082C0F22DA62704700BF13
:1020200010E000E047E8010000ED00E008200D406E
:102030000C000340034BD3E90023100A40EA03607D
:10204000704700BFC0070020034BD3E90023D00B2B
:1020500040EA4340704700BFC8070020054B1860A6
:102060001C3B1A6842F001021A601A68D207FCD4BD
:10207000704700BF2800034010B5064C236823F0CA
:1020800001032360FFF78AFF236843F00103236005
:1020900010BD00BF10E000E0014B1868704700BFA2
:1020A000E8070020074B084A196804331B681268C8
:1020B000120442EA0323054A0B43106843EA006016
:1020C000704700BF40500D4048500D404C500D40EF
:1020D00010B50446104A1368DB07FCD572B6FFF74B
:1020E000E1FF231A062BD8BFC41D0C4B220E1A6029
:1020F000C4F3074243F8042CC4F3072243F8082C26
:10210000E2B243F80C2C62B6054B4FF400321C606F
:10211000044B1A6110BD00BF50500D404C500D4093
:10212000E807002000E100E008B500F0D9FF074B08
:1021300000221A60064B4FF40032C3F89021C3F816
:102140009020BDE8084002F0F7B900BFE807002082
:1021500000E100E0064B1B681B075FBF054B1868DA
:1021600080F00800C0F3C00048BF0020704700BFE7
:1021700018C0004018D00040164A2C2303FB00234F
:102180004FF6BF7270B5DC680546236C62649BB283
:1021900013F050020DD0104EA369DB0608D456F898
:1021A00025301BB12068C0B29847F5E72368F3E7F4
:1021B00070BD13F4D06F0BD04FF440732363FF2333
:1021C0006360E36AE262E362236B43F0010323632B
:1021D00070BD00BF1CD72000EC07002001282DE9AE
:1021E000F74F064600F2B6802C2545435B4F7C191D
:1021F00094F92080B8F1000FC0F2AC8094F92290DD
:10220000B9F1000FC0F2A680554800F0DFFF554A33
:102210007B591168E5680B4313605168636894F952
:1022200021A00B4353609168A3685FFA89FB0B43BD
:1022300093600023C5F8C83F23690AEBC8021A60FF
:1022400094F92330227D00939DF8003058461946BA
:10225000019300F08DF9019B08221946584600F0C1
:102260007DF9414A4FEA0939009959F802000123E2
:1022700003FA01F1014349F802104FEA083858F80F
:10228000020003FA0AF1014348F802105021A96341
:10229000A96B94F9240041F4D061A9630221696318
:1022A0004FF440712963A16900286962E169A9625C
:1022B0004FF07001E962154616DB94F92510A2F57E
:1022C000A64241EAC0041C3A1460040362598B40E0
:1022D000134363510022C9B2C0B200F03FF9234A50
:1022E000136843F4004313602C2303FB067393F934
:1022F0002640002C1BDB93F927A05FFA84F85FFAD5
:102300008AF9012249464046240300F031F9625916
:10231000012303FA0AF31343635108224946404656
:1023200000F01CF9114A136843F4804313602C2316
:1023300003FB0676F268136B43F00103136396F810
:1023400028300122590903F01F0302FA03F3084A57
:1023500042F8213003B0BDE8F08F00BF1CD7200049
:102360005521200028200D4020940D4030D0004001
:1023700000E100E001289CBF014B43F820107047AA
:10238000EC070020012808D8044B2C2202FB003067
:10239000C3689A699206FCD4196070471CD7200064
:1023A000014B00221A60704700500D40014B08227B
:1023B0001A60704700500D40024BA0221A60502254
:1023C0001A60704700500D40014B024A9A607047F6
:1023D00000ED00E000002000024B1868C0F38150BF
:1023E000704700BF04200D4008B5FFF7F5FF024B12
:1023F00053F8200008BD00BF74D7200038B5164D33
:10240000164C2B68012223F040032B602368062121
:1024100023F040032360032000F0A0F82B68012282
:1024200023F080032B602368072123F080032360BF
:10243000032000F093F80A4A0A4B0B491A600A6815
:102440000A4B1340084A002BF9D113685901FCD4F8
:1024500013685B01FCD538BD20C40D4000C40D409D
:102460000101020000200D4004200D400000010188
:10247000034B04481B6803F007031841704700BF73
:1024800004200D400048E801034B04481B68C3F3D7
:1024900002231841704700BF04200D400048E801A6
:1024A000024B02EBC10243F822007047F407002000
:1024B000F8B507460E46094D002405EB411547FACD
:1024C00004F3DB07E1B204D555F824300BB13046F4
:1024D00098470134082CF2D1F8BD00BFF407002062
:1024E0002DE9F04780464FEA0837DFF8409007F1C2
:1024F000804505F5592500F0F3FDD5F8186457F827
:1025000009304FEAC80A23FA0AF446EA0400E4B2A2
:102510004146C0B2F6B204FA0AF4FFF7C9FFC5F8A3
:102520001C6447F80940BDE8F08700BF18970D40CC
:1025300080220021014809F06BB800BFF407002099
:10254000034A044B1A60044B803A1A60704700BF7C
:1025500080400D407808002074080020034B01EBF8
:10256000C0011B6843F82120704700BF7808002095
:10257000034B01EBC0011B6843F82120704700BFEB
:1025800074080020024A136843F030031360704758
:1025900000700D400E2870B50BD1154B154E1C6800
:1025A00044F002051D60356825F03F0343F0010348
:1025B0003360114E336823F0FF031A431143014384
:1025C0000E4A316013681B06FCD50D4B0D4A1B6883
:1025D00012680E2803F0FC0343EA022308BF054AF1
:1025E0001BB204BF1560024A184608BF146070BDD4
:1025F00034000144F486084008700D4000700D401E
:102600000C700D4010700D40024B1868B0FA80F04D
:102610004009704700B7084010B5074B4FF400421F
:10262000064CC3F89021C3F89020206818B101F03F
:1026300065FF0023236010BD00E100E07C0800205E
:10264000064A136843F002031360536843F0020321
:102650005360936843F002039360704748200D4035
:1026600007B50C4800F0B2FDFFF7EAFF0A4B1A6805
:1026700042F002021A6000220192019A0F2A02DC43
:10268000019A0132F8E71A6822F002021A6003B0D8
:102690005DF804FB0926200054200D40064A13680B
:1026A00023F002031360536823F00203536093681E
:1026B00023F002039360704748200D40084B93F9C4
:1026C0000020002A09DB074AED2111601160E32197
:1026D00011601A7862F07F021A700120704700BF03
:1026E000ED1E0020388808400C4A13689907FCD476
:1026F0000A4B1B685B065FBF094BED221A601A602C
:10270000084B1B6813B1064BEF221A60064A0120E2
:10271000137803F07F031370704700BF4C860840A6
:10272000388808402C860840ED1E002038B5A0F1FE
:102730000B04E3B20F2B054613D80B4B1B6813F0A9
:102740003F0302D0FFF7D0FF012304EB8404074AC4
:102750000B3414600BB1FFF7B1FF054B68B21D706D
:1027600038BD4FF0FF3038BD488608403C860840F1
:10277000BB07002010B50B4B1B68990603D1FFF770
:102780009DFF012300E0002307490A68D207FCD51A
:10279000064A1468C4F300140BB1FFF7A5FF2046E6
:1027A00010BD00BF48860840648608404C8608403B
:1027B000044B186800F02200A0F120035842584151
:1027C000704700BF4C860840024B186800F040007C
:1027D000704700BF4C86084038B50C46002900F011
:1027E0008880102800F28780DFE800F0090F1A1CAB
:1027F00023394254596F738585787A7C7F003F4B2B
:102800001B68003318BF012370E03D4B05221B6895
:1028100003F07F030B3B93FBF2F30B33DBB265E07A
:10282000384B00E0384B1A68043B1B6843EA02232C
:102830005CE000230B60354B354A1B6803F0010355
:102840000B601268900644BF43F002030B60314BEB
:102850001B78002B4BD00B6843F0040346E02E4B53
:1028600000201B780860002B41D001230B6038BD8D
:102870002A4B2B491A680023D2B201EBC30000791E
:10288000904203D8264A52F833302FE001330E2B02
:10289000F3D127E0234B1B685BB2493B26E0224B78
:1028A0001B68990603D1FFF709FF012300E000230D
:1028B0001E490A68D207FCD51D4A1568493D6DB20C
:1028C0000BB1FFF711FF256011E01A4B93F90030AF
:1028D0000CE0194B1B7803F07F0307E00B2305E0A6
:1028E0001A2303E06FF0170300E0072323600020A2
:1028F00038BD022038BD012038BD00BF2C860840FD
:102900003C860840CC850840D485084000860840B5
:1029100024860840EC1E0020BA07002040860840AC
:1029200084D72000588608404886084064860840BE
:1029300060860840EB1E0020EA1E002038B50546E0
:102940000C46134A13689B07FCD4124B93F90030D2
:10295000002B01DBFFF7B2FE0F4BEE221A60691E5F
:102960001A60A21C43F8102C2144022000F044FB02
:10297000013C0A4924012143022000F04FFB0220C0
:1029800000F056FB022000F06BFB002038BD00BFBA
:102990004C860840ED1E00203888084002C001C067
:1029A000F8B5214B93F90030002B0DDBFFF77AFBD4
:1029B0000546FFF783FE6FF00904641BFFF772FB07
:1029C000C442FBD4012600E00026184B1B7823B933
:1029D000174D2B68990604D405E0FFF7CBFE0028BD
:1029E000F6D10220F8BD134CE923236004272B689D
:1029F0009A0707D4013F17F0FF0703D00620FFF71F
:102A00002DFBF4E72B689B0704D4EE23236023609F
:102A1000012403E02C6814F00204FBD10EB1FFF78F
:102A200063FE2046F8BD00BFED1E0020BA0700205F
:102A30004C86084038880840214B1870002834D054
:102A4000204A13681B03FCD51F4B1A6842F0020290
:102A50001A601A6842F001021A601A681A4950078F
:102A6000FBD50A6822F001020A601968164A490774
:102A7000FBD4116841F002011160116841F00101BD
:102A800011601A685207FCD5104A136823F004033A
:102A90001360D2F8A83123F00403C2F8A8310C4B1C
:102AA0004FF40052C3F890207047084A136843F06F
:102AB00004031360064B4FF400521A61704700BFC5
:102AC000EC1E002004200D40048808408C8608403D
:102AD00000E100E010B50C46072861D8DFE800F0FF
:102AE000040E181C233F455B012902D1FFF7E6FDC8
:102AF0004BE0002958D1FFF7F7FD46E0A1F10B03A9
:102B00000F2B51D8C8B2FFF711FE01303DD149E07B
:102B10008CB2E2B2254B02E08CB2254BE2B2240A21
:102B20001A605C6031E031F007033DD1214B11F0B8
:102B3000010F1A68C1F3800014BF42F0010222F0B5
:102B400001021A601C4B11F0020F1A6814BF42F008
:102B5000200222F020021A60FFF76EFF15E031F02C
:102B6000010021D1154B197010BD01F118031F2B65
:102B70001AD813490D2351F83300DA00844206DCD9
:102B80000F4B13441A790F4B1A60002010BD13F13C
:102B9000FF33F0D2F9E7CCB20B4B49341C60F4E7B9
:102BA000012010BD032010BD022010BDC8850840C3
:102BB000D08508400086084024860840BA070020D7
:102BC00084D7200040860840588608400B280DD145
:102BD000082A0DD161B1074B074A083111F8010DE0
:102BE00043F8040F9342F9D1002070470120704749
:102BF00002207047A4850840C485084070B52F4D59
:102C00002B6813F0400308D02D4E3368DCB21B064E
:102C100005D52C4BED221A601A60002070BD042CE3
:102C2000F7D9023C8C42F4DCE4B2032C21D0011928
:102C30000139032000F0E8F9631E23491B01194301
:102C4000032000F0EBF9032000F0F2F9032000F07C
:102C500007FA032000F010FA0028FAD131681B4B64
:102C6000493949B219703368194E18063370D0D5F6
:102C700006E0336803703368437033688370EDE7B0
:102C800089B2042006F0EAFE3178032001F07F01CA
:102C900006F0E4FE0F4B1B7873B92B685A060BD570
:102CA000064B1B681B0603D50B4801F027FC03E00D
:102CB000044BED221A601A60204670BD4C86084015
:102CC000288808403888084002C0010CEB1E00200C
:102CD000EA1E0020EC1E0020AC040020F8B5294FAD
:102CE0003D7815F001054BD1274B01241C605C6039
:102CF0009C60A3F59323A3F51473F8221A600922AC
:102D0000C3F89021152270331A6003F59B230B2220
:102D100003F59E731A60A3F59B23A3F5F07340227D
:102D20001A601A687F2642F020021A60D52243F802
:102D30001C5CDE62DA61154B1878FFF7F7FC144B68
:102D40004FF480421E60134B02201A6100F07CF9A0
:102D50001149022000F058F9032000F075F90E49DE
:102D6000032000F049F90D4B1878FFF765FE29465E
:102D70000B4801F0ABFB3B78204623433B70F8BD8A
:102D80000020F8BDED1E0020A8200D40BB0700204C
:102D90009486084000E100E028880840EC1E0020EE
:102DA000AC04002038B503880446CBB140F203429E
:102DB000934203D000230380032038BD194B1878B9
:102DC0001A4628B11B7873B1174B1B7858060AD5E1
:102DD000822908D1137843B1134B1A78520614D4C0
:102DE00040F203432380012038BD06F0DDFD06F0EC
:102DF00071FD8021FFF702FF0028EDDD80B206F0B3
:102E00004DFD0A4B1B699847E6E700221A70084BF4
:102E10001D68FFF769FCFFF761FFAB06E0D0FFF725
:102E20004DFCDDE7EC1E0020ED1E002080D82000C8
:102E3000488608400B282DE9F84F0E4610D1082A85
:102E400040F0828000297FD0414B424A4E1E53F809
:102E5000041D934206F8011FF9D10020BDE8F88F48
:102E60000C286ED1042A6FD100296DD03A4B3B4813
:102E70001A68DFF8F8C022F007021A600268DFF86B
:102E8000F0A042F008020260DAF80040DCF800101E
:102E90001A68DFF8E0E022F07002314F1A60DEF8C5
:102EA00000203D68E4B2090244EA056401F47F4170
:102EB0001204214302F47F020A432A490024D1F874
:102EC00000805FFA88F544EA02081A68A94622F0F1
:102ED000070242F001021A60026842F00802026032
:102EE000DAF80000DCF800201D68C0B225F070059B
:102EF00045F010051D60DEF800303D68120240EA22
:102F0000056002F47F421B04024303F47F03134372
:102F10000A6844EA030A5FFA82FBFFF7C3F8B8EBDA
:102F20000A0869EB0B094FEAC93105460E4A00232E
:102F30004FEAC83041EA584108F0A2F8281A306038
:102F40008BE70120BDE8F88F0220BDE8F88F00BFB5
:102F5000C8850840A88508401088084004880840B3
:102F6000208808401C8808400048E801188808406C
:102F7000148808402488084008B5054B1B7813B90D
:102F8000044801F0BBFA044B00221A6008BD00BFE0
:102F9000EC1E0020AC04002034880840064B074893
:102FA0001A68042A1FBF06490A7842F040020A70D4
:102FB00000221A6001F0A2BA2C880840AC0400205C
:102FC000ED1E002010B5094C40220021204608F0DB
:102FD0001FFB074B01221A605C60064B4FF48042D6
:102FE0005A604FF400425A6010BD00BF000000203C
:102FF00004F00F4000E100E003289EBF014B0001F8
:10300000195070470000002003289EBF024B03EBBD
:1030100000104160704700BF0000002003289EBFE1
:10302000024B03EB00108160704700BF00000020DE
:10303000032806D8034901220B6802FA00F018435E
:103040000860704728F00F40032806D80349012282
:103050000B6802FA00F018430860704720F00F4038
:10306000032806D8034901220B6802FA00F018432E
:103070000860704714F00F4003289FBF044B03EB18
:103080000010806800F0070088BF0020704700BF74
:1030900000000020024B4FF0FF321A60704700BF63
:1030A00004F50F40014B01221A6070474CF00F40AD
:1030B000094A1368084913F4801FFAD1074B1A68AC
:1030C00022F480321A600A68D203FCD41A6842F4EF
:1030D00000321A60704700BF04200D4000200D40F0
:1030E00010B50B4B1A681C4612F0030F0ED009499D
:1030F0000B68084A13F0806FFAD113685B01FCD5A6
:10310000FEF7BAFFFFF7D4FF0023236010BD00BF16
:1031100058200D4004200D4038B5264B1C6814F093
:103120003F0413D1244D55F8243023B1984768B19A
:103130000134052CF7D1214D2B783BB1FEF7ACFFC4
:103140000446FEF7AFFF201A092801D830BF38BD6A
:10315000002CFBD01A4B1B481A6822F400321A606C
:103160000268184912F4801FFAD11A6842F48032BA
:103170001A600B68DB03FCD5FEF794FF201A0928C0
:1031800003D8BDE83840FFF793BF63280E4C02D93F
:103190002B78022B00D00123236001F065F920B1C8
:1031A000FFF786FF0023236038BDFEF775FF002878
:1031B000CCD1F5E74886084080080020EE1E0020AC
:1031C00000200D4004200D4058200D4007490023E9
:1031D00051F82320824207D01AB9044A42F823004A
:1031E00070470133052BF3D1704700BF80080020E2
:1031F000054B00221A60054A136943F0040313616A
:10320000034B01221A70704758200D4000ED00E07A
:10321000EE1E002010B5074B4FF48032064CC3F869
:103220009021C3F89020206818B101F067F90023BD
:10323000236010BD00E100E09408002030B5184B79
:103240001A78431E22B101F520112731154A1FE0DB
:10325000154A1278122AF6D1144A12784B2AF2D162
:103260004A0802F12814B4F1281F04D014F8015DB3
:1032700003F8015FF7E701F520112731002310441F
:10328000934204DA11F80149C4540133F8E730BD20
:10329000914204D011F8010903F8010FF8E730BD9D
:1032A0002B002800270028002A00280029002800D9
:1032B000F0B5124D06462F468FB00024B5F9063002
:1032C000A3B1B5F9041001A808F0CDFD9DF80D30AB
:1032D00003F03603022B09D10DF10E01304608F040
:1032E000E5F918B90C2000FB047005E00134052C49
:1032F00005F10C05E2D100200FB0F0BDD40800208C
:103300001B4BF0B507461E46B3F900508FB04FF087
:10331000FF34002D0BDA294601A808F0A4FD9DF822
:103320000D20910717D4631C05D1FD4202D44FF044
:10333000FF301AE02C462846BDF90A1008F0C8FDF7
:10334000E31983420546E4DCB6F9002094420BD130
:10335000074A138008E02846BDF90A1008F0B8FDB6
:103360004FF0FF340546D4E720460FB0F0BD00BF54
:10337000C017002070B58EB004460E46014601A865
:10338000154608F070FD9DF80D3003F00602022A84
:1033900002D04FF0FF3040E003F0200101F0FF02C7
:1033A0000029F6D176B99DF80D30214643F004038B
:1033B00001A88DF80D3008F083FD194A0023137021
:1033C00055B916E01B07EED51146BDF90400FFF70D
:1033D000D1FF0028E7DADCE71D461248C218516821
:1033E00021B1B1F90410A14208BF15720C333C2B76
:1033F000F4D14FF6FF700C4B002203F13C01B3F9FE
:1034000004500C33A54202BF23F8080C03F8022C29
:1034100023F8062C8B42F2D100200EB070BD00BF05
:10342000EF1E002098080020D40800202DE9F0416C
:1034300080468EB00E4632B13046FFF761FF05463A
:10344000013013D105E0FFF733FF0028F4D000204E
:1034500047E0254F3C78002CF9D13046FFF750FF6C
:10346000411C054602D101233B70F0E732220021C6
:1034700001A808F0CDF8272241460DF10E0008F012
:10348000FFFA0223294601A88DF80D30ADF80A6035
:1034900008F016FD15494FF0FF330C460022B1F934
:1034A000060040B1887A0C31002808BF134601326B
:1034B000052AF4D112E013460C225343BDF80A202A
:1034C000E018C2809DF80D208580C2F3C002C27250
:1034D0004FF6FF7202810022E25002E05A1CEBD14B
:1034E000B5E70EB0BDE8F081EF1E0020D408002043
:1034F0002DE9F8438146234A0D4600240C2101FBA7
:1035000004273B7ADFF87C8033B10134052CF6D1F7
:103510004FF0FF30BDE8F8833B727B724846FFF7FF
:10352000C7FE0646786068B905F00303012BEFD0AB
:10353000012208214846FFF779FF78600028E7D08C
:10354000066007E03368013304D1B6F9040008F0DF
:103550008EFC30600C2303FB0482117A6343294301
:1035600015F00405117218BF5268204618BF15687F
:1035700008EB0302526848F80350937A01339372C0
:10358000BDE8F8839808002004280CD8064B0C22CC
:1035900002FB0030037A33B14168002202728B7A59
:1035A000013B8B724260704798080020042870B578
:1035B00025D80C244443134B1E19357AFDB142B172
:1035C000022A02D17268126802E0012A17D11A5940
:1035D0001144002913DB0C2202FB00325268B2F9BD
:1035E0000640B1EB042F0ADC1468A14202DDAC07EF
:1035F00005D511600C2250431950084670BD4FF09C
:10360000FF3070BD980800200428F8B50F46144616
:1036100033D80C2242431A4DAB18197A69B3C90743
:103620002BD55E7A596876070DD507EB040E4FF05F
:10363000000C1A68C7EB0E040E682244B24208D987
:103640000EF801CDF5E7AB580A681E19964288BFFF
:10365000D41ACB7ADB070ED40C264643AA59B1F90B
:103660000430323202EB03222146384608F0A6FC31
:10367000AB592344AB512046F8BD4FF0FF30F8BDA5
:10368000980800202DE9F04F9FB0042800AF824633
:10369000B960164602D94FF0FF30BFE0614A0C25F1
:1036A00005FB00252B7A7A60002BF4D09A07F2D51F
:1036B0006B7A6C689B0700F193802B68B4F9062045
:1036C00032333344B3EB022F40F28A80B4F904B0B2
:1036D00007F11000594608F0C6FB012107F11A0056
:1036E000FFF706FFB0F10008D5DBB7F9161001228D
:1036F000490009B207F11A00FFF798FE04460028B6
:103700004ED04FF00009BA8AC7F80CD0002A08BF83
:103710004FF48072D31D23F00703ADEB030D694610
:103720004046FFF771FF031E0BDA00221146B4F981
:103730000400FFF71FFE4046FFF726FFD7F80CD026
:10374000A9E70BD0B4F90420194609EB0222323262
:1037500068463B6008F0C8FB3B689944D7F80CD03A
:10376000002BD0D12F4B03F13C011A7A42B15A6899
:10377000B2F904205A4501BF5C60A27A0132A272FC
:103780000C339942F1D1002201215846FFF7F2FD96
:103790000028B4F9040007DA00221146FFF7EAFD19
:1037A0004046FFF7F1FE76E7014607F1440008F0D6
:1037B0005AFBBB8A07F14400A7F848307B8AB4F96A
:1037C0000410A7F8463008F07BFBE37AC4F80090B9
:1037D00023F00103E3724046FFF7D6FE6C686CE706
:1037E0000C2303FB0AFA7B68226853F80A300D4D5C
:1037F0009342FFF650AFB4F90420323303EB0222B8
:10380000B868314608F070FB304655F80A3033444A
:1038100045F80A3022689342C8BF23607C37BD4612
:10382000BDE8F08F980800200FB407B504AA52F83D
:10383000041B0448019200F04DF803B05DF804EB5E
:1038400004B07047BC0400201FB51446074A8DE839
:103850000300029221461A4602A8CDF80CD000F0CF
:1038600039F8009B00221A7004B010BDF1BF20008F
:103870000EB43FB5094B07AA52F8041B01900493FC
:1038800004A801AB0392059300F024F8019B0022E9
:103890001A7006B05DF804EB03B0704733C0200027
:1038A00070B505460C46102C07D92B681022084924
:1038B0006868984750B9103CF5E734B12B68224648
:1038C00068680349BDE870401847204670BD00BFD6
:1038D0007BDB20002DE9F04F064615468FB00691A0
:1038E0004FF0000B069B1B78CBB1069C274617F8C0
:1038F000013B1BB1252B14D03C46F7E7069BA342A6
:103900000DD0069B0699C3EB0408424633687068E5
:103910009847002840F01F832378C34423B95846B2
:1039200034E3069BA342ECD16378002BF7D03946F1
:103930000024084610F8013B0A462B2B11D006D86C
:10394000202B11D0232B12D144F0080416E02D2B8C
:1039500004D0302B0BD144F010040FE044F00104EC
:103960000CE044F0060409E044F0020406E0A3F190
:103970003107082F11D84FF0000801E00146D8E7C1
:103980000A4611F8013BA3F13000092813D80A2296
:1039900002FB0838A8F13008F2E72A2B09D12B687E
:1039A0000246002B05F10405B8BF44F00104984617
:1039B00001E04FF0000813782E2B1AD15178531CD8
:1039C000A1F1300009280ED8194600270A780B46C5
:1039D000A2F13000092801F101010DD80A2303FBEF
:1039E0000727303FF2E72A2904D12F68931C0435BA
:1039F00002E013464FF0FF371A786C2A09D15A7843
:103A00006C2A02D144F080040AE0013344F06004DF
:103A10000BE0682A09D15A78682A03D144F02004BF
:103A2000023302E0013344F040041A78642A3CD0A7
:103A30001FD8462A48D00DD8252A5AD003D8002AA4
:103A40003FF46DAF57E0412A4AD0452A53D144F4A0
:103A5000424450E0582A31D004D8472A4BD144F48C
:103A6000A13448E0612A38D0632A44D144F4A064E8
:103A700041E06E2A3AD007D8662A22D027D3672A97
:103A800028D0692A11D036E0732A2CD006D86F2AA4
:103A900011D0702A2FD144F440742CE0752A07D03D
:103AA000782A28D144F4C85425E044F4245422E070
:103AB00044F410641FE044F488541CE044F4B2441D
:103AC00019E044F4007416E044F4844413E044F430
:103AD000024410E044F481340DE044F4C1340AE0BF
:103AE00044F4E13407E044F4806404E044F4E06426
:103AF00001E044F4C0640133069304F4E063B3F5D9
:103B0000806F00F08F8113D8B3F5807F27D0B3F595
:103B1000407F7FF4E7AEAE4B14F4804FAD4A18BF40
:103B20001A460DF133032868002104351F46B5E11C
:103B3000B3F5C06F08D0B3F5E06F00F02282B3F5A3
:103B4000A06F7FF4CFAEF2E133680122A249706822
:103B50009847002840F0FF810BF1010BC2E6002FCF
:103B6000ACBF24F01004012714F40053079304F0B1
:103B7000E0032ED0402B12D005D8ABB1202B21D1A1
:103B800095F900200DE0602B0ED0802B1AD107355F
:103B900025F0070303F10805D3E9002307E0B5F991
:103BA0000020D317043502E02A680435D317002A11
:103BB00073F1000108DA524263EB4303CDE90023BD
:103BC000012304E000220023CDE900230023059314
:103BD00029E0402B13D004D8BBB1202B1DD12A786B
:103BE0000EE0602B11D0802B17D1073525F007038D
:103BF00003F10805D3E90023CDE900230BE02A886F
:103C00000023CDE90023043505E02B680022194686
:103C1000CDE900120435079BD9E700230593002264
:103C20000023CDE9002304F4C053B3F5805F0CD02A
:103C3000B3F5C05F33D0B3F5006F4FD1DDE900239A
:103C40000DF13609CDE9022304E0DDE900230DF191
:103C5000360915E0DDE9022313433AD0DDE902011C
:103C60000A22002307F00CFADDE90201303209F8DC
:103C7000012D00230A2207F003FACDE90201E9E74A
:103C800052EA030125D002F00701303109F8011D85
:103C9000D10841EA4371D8080A460346F0E74C4B85
:103CA00014F4804F0DF136094A4918BF1946DDE971
:103CB000002352EA03000CD002F00F00085C4FEA28
:103CC000131E09F8010D100940EA037002467346FD
:103CD000EFE70DF13603C9EB030302E00DF13609FE
:103CE00000230293029B41F60802BB4238BFFF1A31
:103CF00041F2080302EA040228BF00279A4202D1D7
:103D0000002F08BF012741F60801029B8A4203EBFE
:103D100007000DD1DDE90023134309D02F4A3049B4
:103D200014F4804F4FF0020A0CBF0B46134602E01A
:103D30004FF0000A5346079A9AB1059A52B904F017
:103D40000602022A0AD0062A264A04BF4FF0010AB8
:103D5000134606E04FF0010A234B02E0234B4FF0DD
:103D6000010A0AEB000290458CBFC2EB08084FF035
:103D7000000814F0010200920DD1E10602D547447B
:103D8000904608E0414630460593FFF789FD059BC4
:103D9000002840F0E080BAF1000F07D034685246A6
:103DA00019467068A047002840F0D580029B03EBBD
:103DB0000B04BB46BBF1100F33681BD910220C4912
:103DC00070689847002840F0C680ABF1100BF1E70F
:103DD00046DB200057DB200079DB20006BDB200076
:103DE00068DB200070DB20006EDB200015DA20008D
:103DF0008BDB2000BBF1000F06D05A466549706886
:103E00009847002840F0A7803368029A49467068B6
:103E100054449847002840F09E80009B3C44002B6F
:103E200039D032E0D5F800900435B9F1000F0AD04E
:103E3000CA469AF800300AF101020BB19246F8E73F
:103E4000C9EB0A0A03E0DFF850914FF0060A002F91
:103E500002DBBA4528BFBA46D0458CBFCAEB08087A
:103E60004FF0000814F0010705D141463046FFF736
:103E700017FD00286FD1336852464946706898474D
:103E8000002868D10AEB0B042FB141463046FFF7FA
:103E900007FD00285FD108EB040B23E550EA010E73
:103EA0000ED000F00F0E12F80EE04FEA111C03F8CE
:103EB00001ED4FEA101E4EEA017E70466146EDE7C5
:103EC000FF1A02BF3022012703F8012C07F1030774
:103ED00008BF03F1FF337822B84503F8012C4FF0F7
:103EE000300203F8022C88BFC7EB08084FF023020A
:103EF00098BF4FF0000814F00104A3F1030903F880
:103F0000032C04D141463046FFF7CAFC18BB336886
:103F10003A46494670689847E8B95F4424B141463B
:103F20003046FFF7BDFCB0B908EB070BDAE4B8F197
:103F3000010F2B688CBF08F1FF384FF0000814F018
:103F4000010405F104058DF8203008D141463046C2
:103F5000FFF7A6FC10B14FF0FF3017E0C344336801
:103F6000012208A9706898470028F4D108F10107D8
:103F70002CB141463046FFF793FC0028EBD1BB44FF
:103F8000B0E42B680435C3F800B0ABE40FB0BDE873
:103F9000F08F00BF8BDB200072DB2000F8B50388B8
:103FA000064615462BB14A2B15D00023038003206B
:103FB000F8BD174808F0A8F804462CB1A168201DE8
:103FC00008F04DF82468F8E7124B01221A704A23D2
:103FD00033800120F8BD8829FBD10D4808F094F802
:103FE0000446002CF3D0231D9D420ED121460848E3
:103FF00008F094F8084B62691F681A60A2691D46B0
:104000000AB1E06990472F60E1E72468E9E700BF63
:1040100010090020F01E00201C09002010B5064BDE
:10402000002406481C7008F06CF82146BDE81040DA
:10403000034800F04BBA00BFF01E0020100900201A
:10404000C404002070B50446E3610B4B049D1B784B
:104050006561A26143B1094D094B2E68201D2B609B
:1040600007F0FDFF2E6000E0A1602146BDE8704032
:10407000044808F066B800BFF01E00201C090020AC
:10408000C40400201009002013B5034C24680094D8
:10409000FFF7D8FF02B010BD1C09002070B5094B16
:1040A00005461B783BB1084C084B2668043023605A
:1040B00007F0DEFF26602946BDE87040044808F09E
:1040C00040B800BFF01E00201C090020C4040020DE
:1040D0001009002070B5094B05461B783BB1084C10
:1040E000084B26680430236007F0CBFF2660294682
:1040F000BDE87040044808F024B800BFF01E00205E
:104100001C090020C40400201009002010B5084B31
:1041100004461B781BB1043000F0B4F801E0C36022
:1041200003612146BDE81040024807F0F7BF00BF19
:10413000F01E00201009002010B50E4C236813B9A2
:104140000D4A136010BDFDF775FF216891E80C0062
:104150001A44131A8A6842B192E812002144091ADB
:104160008B4228BF0B469268F5E71844024B186053
:1041700010BD00BF1409002018090020014800F0FC
:10418000BDB900BFD40400202DE9F84303880546DB
:1041900033B1592B0BD0002303800320BDE8F883F3
:1041A000234A136059232B800120BDE8F883872917
:1041B00024D08229F6D11E4F4FF00008B9463C6842
:1041C0000026002CEED0204607F08DFF98B1224645
:1041D0008821E06800F052F958B9E060A3680EB198
:1041E000B36001E0C9F80030C4F80880FFF7A4FF0D
:1041F000E5E7FFF7C3FF2646A468E2E70C49002085
:104200000B681BB90028CDD00B60CBE7DC68A2425D
:1042100002D19B680120F4E700B10B609968002986
:10422000C0D0C86882420ABF89680B469960F5E72A
:104230001409002010B50446FFF7A0FFE3680B4AFD
:104240004BB113683BB1A34203D1094A1268DA604B
:1042500007E09B68F6E7064B1B68E3601368146091
:10426000A360BDE81040FFF767BF00BF140900203E
:104270001C090020024B1868003018BF012070474D
:104280001409002010B50B4A04461368834206D176
:104290008368136008E09A68944203D01346002BA9
:1042A000F9D103E0A2689A60FFF746FF0023A360FC
:1042B000E36010BD1409002038B5836804460D463C
:1042C0009BB10A4804600220A07304F10C009847D7
:1042D0000238012801D9832D05D121462046BDE8A9
:1042E000384000F005B80123A37338BD1C09002035
:1042F0002DE9F8431C4A0446156889462B4690462A
:104300001A4E3768A34204D00BB11B68FAE7BDE828
:10431000F88334B3A37BABB10023A37345B1A542AB
:1043200004D022468721284607F0BCFE2D68F5E719
:10433000A3683BB14C4505D034602A46832104F183
:104340000C009847D8F800309C4203D12268064BF5
:1043500005E0134623B11A689442FAD122681A6024
:104360003760BDE8F88300BF200900201C09002049
:10437000002370B51D46094A01261370084A1468C7
:1043800054B1E37B33B1A673E5730022822120464A
:10439000FFF792FF2468F3E770BD00BFF31E002013
:1043A00020090020024B1878421C1A70704700BF89
:1043B000F41E0020064B8A221A70064A002313704E
:1043C000054A1370054A1360054A1360704700BF21
:1043D000F41E0020F11E0020F21E00202009002003
:1043E0001C0900202DE9F0411A4D2B780BB1FFF785
:1043F000BFFF194C22783AB3184E0C213378184F6E
:104400005943781817F8018001334768806803F032
:104410001F03013A3370227068B9124B1E689EB1B7
:104420002B780BB1FFF7A4FF30463A46414607F020
:1044300039FE3668F3E7B8F1810F04BF01238373B7
:104440003A46414607F02EFE2B7820781844BDE806
:10445000F08100BFF31E0020F21E0020F11E00209C
:104460002409002020090020024A034B10781B7801
:1044700018447047F21E0020F31E0020F0B50B4ECA
:104480003378202B0FD00A4C0C252478094F1C447C
:1044900004F01F046C4301333D19A86039556A606C
:1044A00033700020F0BD0120F0BD00BFF21E0020DF
:1044B000F11E00202409002038B5034C256807F0C0
:1044C000F1FD256038BD00BF1C09002030B40A4C46
:1044D0000A4625682B4683420CD00BB11B68FAE7CD
:1044E00040B101210560817320608381812130BC4E
:1044F000FFF7E2BF30BC70472009002038B1837B52
:10450000013B012B9FBF024A0123C3731370704705
:10451000F31E0020024610B5064853600468029B53
:1045200011609360026014B90846FDF7D1FD0020C8
:1045300010BD00BFA40A002010B5084C206858B177
:1045400000232360816843689847236823B1BDE84E
:1045500010401868FDF7BCBD10BD00BFA40A0020C4
:1045600010B50446FDF770FD94E80C001344C01A22
:10457000024B98428CBF0020012010BDFEFFFF7F40
:1045800070B505880446672D09D0792D30D0002DEF
:1045900034D1FFF707FF1C4B18701C4B1D601B4DDF
:1045A0002E461B4807F05CFE431C01D167231DE02B
:1045B0000A28164A07D02B687E2BF2DC5A1C326080
:1045C000144AD054EDE713680025591C1160114AB4
:1045D0002846D5540C4B1978FFF750FF0E4B2A464E
:1045E00085211868FFF74AFF20B97923238009E065
:1045F000852907D1054B00221A60D0E700230380EC
:10460000032070BD012070BD813C0020A80A00205D
:10461000AC0A0020761F00201C0900200D2810B5D0
:10462000014615D00B4C23782BB90B4807F005FE3B
:1046300048B9012306E00A2805D1074807F0FDFD27
:1046400008B1002323700548FFF758FF012010BD73
:10465000002010BD751F0020AC0A0020E4040020DB
:1046600008B505490548802207F0E0FDBDE808408F
:1046700000210348FFF72ABFF51E0020AC0A0020E6
:10468000E4040020054A136843F004031360044B5C
:104690001B68906943EA002080B2704700700D40AB
:1046A00014700D4010B5184A136823F00C03136002
:1046B000164B01221A601A68012AFCD1144B0822F9
:1046C0001A60E322C3F8142203F505731946114A50
:1046D0001368DB07FCD5104C10200023226801383A
:1046E00002F0010243EA02034FEA43039BB2F5D111
:1046F000002BF1D0094A180A03F0FE031060136082
:10470000EF230B6010BD00BF00700D40A8200D40CE
:1047100024860840648608409C86084014700D403A
:104720000C4AB82303FB00220023F0B553821E4637
:104730001A4640F24C550849CC18A77827B15F5C5F
:10474000874204BFA67001327133AB42F4D11046E8
:10475000F0BD00BFD00A00200120002008B50648A7
:1047600002F00AFF054B01221A70FD2100225A7047
:104770009970DA7008BD00BFB1492000F71F002012
:1047800030B513780546087A83F0020398421DD1AC
:10479000487A5378984219D1887A9378984215D1FB
:1047A000C87AD378984211D1087B137998420DD1F9
:1047B000487B5379984209D1887B9379984205D1F7
:1047C000C87BD379984201D103201BE00B890F4CA1
:1047D0006BB94B89B3F57F4F09D18B89FE2B06D17D
:1047E0002368CA89022023F8022B23600AE022688A
:1047F00001F1080303CB083242F8080C42F8041C0C
:1048000001202260A840C0B230BD00BFBC0A002019
:1048100010B50E4C0220A17905F020F9A379112BD7
:1048200001D0062B05D1218D638D9942A8BF194671
:1048300006E03A2B03D1218D49BA89B200E000216C
:104840000120BDE8104005F009B900BFC4280020D0
:1048500010B5084C01462378012B08D10822A01C72
:1048600006F0CAFD00280CBF2046002010BD002025
:1048700010BD00BFF71F002008B50146102005F04D
:10488000FBF8044B00219B6803489847BDE80840AB
:10489000FDF792BDA0D820009D48200010B50C4621
:1048A0001146204602F03EFA044B1B6813B19B6888
:1048B00020469847024B1C6010BD00BFCC0A002068
:1048C000C80A0020124AF8B505460023712000FBF3
:1048D0000324A678B6B9617004F0EAFF26460D4FAE
:1048E0000D4A3B7806F8035BC01A1568A0701D449A
:1048F00004F0DEFF3A782946821A304606F0AEFD13
:10490000A078F8BD01330C2BE1D14FF0FF30F8BD9A
:10491000012000204D250020C00A00202DE9F84389
:1049200015090F2D0646984602F00F0403D00F2CF0
:1049300035D045B103E00F2C2FD1102425462A464F
:10494000304606F08BFD2A190F2A274605DCC2F1F6
:1049500010020021701906F05BFEBCB1DFF84C803C
:10496000C7F11000D8F8009022464946304406F0BE
:1049700075FD022C05D10A2D9FBFFF23F372FE2384
:1049800033734C44C8F80040BDE8F88365B1414634
:104990003046BDE8F84307F0CFBC1025CFE7102420
:1049A000002DCCD12746D9E7BDE8F883BC0A00200A
:1049B0002DE9F04F934E944D87B0002333702B7048
:1049C000044604F0F1FF04F085FF904A904B126812
:1049D00018600296009501930AB1FFF719FF0CB910
:1049E0008C4900E0214604A808F0CFFB8A4BDFF891
:1049F00030A21A8803933E2A019B40F21382D3F817
:104A00000080864E08F102033360009B0AF1180013
:104A10001F780023023708F80730FFF719FF20B985
:104A20000AF10800FFF714FF20B108F10303336017
:104A3000802400E004469AF801209AF80010130937
:104A400043EA0113DBB2980840EA83135BB212F029
:104A50000F0FDDB201F00F000DD17149498851B936
:104A600010B912F0F00F21D06C4A136803F8015B03
:104A7000136070251BE0694978B912F0F00F0CD172
:104A8000086823F03F031A43664B02701B8803300B
:104A900020F8023C6825086009E0614A0B6810684C
:104AA000186003F8045B0B60602500E078255C4B20
:104AB00099469979594B112908BF45F0040515F01D
:104AC000040F02BF1A6802F8011B1A6099F8072048
:104AD000402A06D0FF2A07D0012A08D145F0010557
:104AE00009E045F0020506E045F0030503E019681A
:104AF00001F8012B1960B9F80820494B82B95A898D
:104B000072B99A8962B9DA8952B91A8A42B95A8A4B
:104B100032B99A8A22B9DB8A13B944F0400013E013
:104B20004148FFF795FE414B186078B1427818F87C
:104B300007303D4943EA021308F807303C4A042095
:104B4000FFF71EFE60F03F00C4B229E048F2FE030A
:104B5000B9F8082032499A420CD14B8B53B98B8B50
:104B600043B9CB8B33B9324A08310420FFF708FE32
:104B70002043E9E7294BDFF8B0C01A68994696460A
:104B80000CF1100B634603CB5B45CEF80000CEF86A
:104B900004109C460EF1080EF4D11032C9F8002022
:104BA000DFF87CB0DFF874909BF81830FF2B40F0F2
:104BB0008D809BF8192044F0080E022A5FFA8EFEC1
:104BC00038D1BBF81A30ABBBBBF81C3093BBBBF879
:104BD0001E307BBBBBF8203063BBBBF822304BBB25
:104BE000BBF8243033BB9BF826301BBBD9F8003010
:104BF0009BF8272044F00B0003F8012BC4B2C9F83E
:104C00000030A2E0F61F00204D250020CC0A002035
:104C1000C00A0020AEDC2000B0280020BC0A002022
:104C2000C4280020C6280020CC280020B40A002078
:104C3000BC2800209C4B598BA1BB998B91BBD98B75
:104C4000B1B9198CA1B9598C91B993F8241079B9DB
:104C5000D9F8001044F00A00C4B2084600F8012B4D
:104C600033F8252F043121F8032C9B78837016E04C
:104C70008D4BD98BB1B9198CA1B993F8221089B990
:104C8000D9F8001044F00900C4B2084600F8012B1E
:104C900053F8232F063141F8052C1B790371C9F80D
:104CA000001052E0D9F80020804F144607F1100C94
:104CB0003B4603CB6345206061601F4604F1080456
:104CC000F6D11032C9F8002074463EE00BF118000E
:104CD000FFF7BEFD764B186068B118F807104378EF
:104CE00044F004040B43E4B208F8073004AA0BF1C3
:104CF0001801002011E048F2FE03BBF818209A4288
:104D000010D1BBF81A306BB9BBF81C3053B9BBF8E3
:104D10001E303BB904AA0BF11801FFF731FD204307
:104D2000C4B212E0D9F80020DFF880E117460EF196
:104D3000100C734603CB6345386079609E4607F1DB
:104D40000807F6D15B4B10321A60029A56482823A6
:104D5000137083795749112B59D1028D130A43EAF5
:104D600002234FF2B0029BB223F00F07BFB297426B
:104D70001AD1B0F82AE04FEA1E2242EA0E2222F0AF
:104D80000F0292B2BA420FD13268F3231370038D2F
:104D900002321F0A438D1B0A03EB071303F5AA63B4
:104DA00002F8013C326029E0BAF82A003E4A0002CB
:104DB00080B2B0F5704F09D13368F1201870108DB2
:104DC000A3F80100528D120ADA700CE003F47F435D
:104DD000B3F5704F0AD13368F2201870108D000AB5
:104DE0005870528D5A800433336007E00B68F0200E
:104DF0001870906A053343F8040C0B602E4B1A8828
:104E00000B6823F8022B029A0B6030231370019B6E
:104E10001A68009B1B78D55413445C700B689B1A6E
:104E2000009A19E01A6841231370009B0AF12805C3
:104E30001C78631CDBB21344524603CAAA421860B2
:104E40005960924603F10803F6D1009B29341C7087
:104E5000029B029A1B782833137004A9102004F0D7
:104E60000BFE164B164E1B68984730EA200028BFF1
:104E70001520029A0099039B14781B880D78C0F1C5
:104E80007D071A1B791B8A42DFF838A040F3BC80EB
:104E9000C0F1780B93FBFBF404F018FE0138844258
:104EA00012DB0020C1E000BFC4280020DC28002065
:104EB000B40A0020BC0A0020F228002074D8200088
:104EC000B02800204D250020DFF878910023C9F894
:104ED0000030019B9AF80050D3F800802A464146E2
:104EE00008F1040006F030FB3388514A1B0A63F0D6
:104EF0003F0388F800303388043588F80130138880
:104F0000EDB2591C118088F803301A0A494B7C1BFA
:104F10001978494B24F00704484F194488F80220B7
:104F200008EB0500224602938AF800503C6006F028
:104F300095FA281980B204F0B1FC04F0CDFD029B73
:104F400004461D460028ACD00DF110084046FFF77E
:104F500093FC204604F0F8FD204604F0DFFDD9F86C
:104F60000030012B9DD0043B012B9AD9314B2BF003
:104F700007001C783B68B3461C4405238AF80030C0
:104F8000BA462F4BA4B21A68338838601B0A63F004
:104F90001F03137033885370BBF800309C4243D218
:104FA000019A1B1B1068E20802713A6829199342A2
:104FB000B8BFCAF80030009B3E681B7832461844E0
:104FC000029306F04BFA029B981980B204F066FC3B
:104FD00004F082FD064600283FF463AF4046FFF729
:104FE0004BFC304604F0B0FD304604F097FDDAF893
:104FF00000301C44D9F80030A4B2012B3FF451AF6B
:10500000043B012BC8D84CE7019B0B49186821448D
:10501000284406F023FA30882844001B80B204F0AC
:105020003DFC04A8FFF728FC012007B0BDE8F08F85
:10503000C2170020F61F0020C4280020C40A002048
:10504000C00A0020C80A00202DE9F047074688461C
:105050001546002A4CD0414E0024B046338ABB424C
:1050600016D1738AA3B10F2004F012FD0146304619
:1050700008F090F860B15FFA84FA29465046FFF7CD
:1050800021FC002829DA0027DFF8D4903E460FE003
:105090000134022C06F1B806E0D14FF0FF30BDE834
:1050A000F087A64209D10136022E09F1B8090ED0C7
:1050B00039F8063C002BF6D0F3E7484607F013F822
:1050C0000028F0D0F0B2FFF72BFB0744EBE7002FEE
:1050D000E3DD29465046FFF7F5FB0028DDDDB82368
:1050E00003FB04839A8A1044988260B2BDE8F0877B
:1050F0001B4E4FF0FF3436F8063C63B3304606F0E3
:10510000F2FF10B1E8B2FFF70BFB611C03D136F8D8
:10511000063C03B96CB20135022D06F1B806EAD19E
:10512000621C15D0B8256543DFF830900F2009EBDD
:105130000506A6F81280378204F0AAFC0146304624
:1051400008F023F805F118004021484406F0B9FFA3
:105150002046BDE8F087631CDDD1DBE7D00A0020E4
:10516000E80A00202DE9F04F0F2087B0DFF8F48225
:10517000AE4C04F08DFC002604F0CAF988F80060FB
:10518000267004F0A7FBAA4DA2462860042004F074
:105190006DFCA84B2A6800B2186057781378CDF8D8
:1051A000008047EA032703F0F803C02B02D0E02B6E
:1051B0001BD03DE09478D0789AF80030C7F30A0706
:1051C00004333246394640EA04208AF80030FFF7BB
:1051D0003BFFB0F1FF3F804600F07182964CB82350
:1051E00003FB00440126223425E092F804B09478B1
:1051F000D0789AF80020C7F30A0705328AF8002011
:1052000039465A4640EA0420FFF71EFFB0F1FF3F3F
:10521000804600F054828849B82202FB0012958A29
:105220004FF00109BD4234BF002501253446D1E1CC
:10523000B0463746814C28689AF80010425C02F06C
:10524000E003602B40F0A9818D1C014491F801908E
:105250007B4B4FFA89FB0544BBF1000F1D60BCBFBF
:1052600001351D6012F0100F02F008012FD1D1B9E5
:10527000196831F8010FA4F801008978E170196804
:1052800011F8040B1960830803F00F0141F060016D
:105290002170617803F0300343EA801301F00F01BD
:1052A0000B4363702EE0186860210546217015F8E5
:1052B000011B03304FEA910E0EF0300E01F00F018A
:1052C0004EEA010161702988186061801AE001F0DE
:1052D000FF0591B919680878C0F3830040F06000B9
:1052E000207011F801EB65804FEA9E0000F030005D
:1052F00040EA8E106070196004E060232370002380
:105300006370638002F0040303F0FF0101912BB985
:105310004B490B6813F8010BA0710B6012F00302EC
:105320000BBF474A474B13689B5C09BF13F8011B2F
:10533000E3711360E17119F0400FC9F3011230D02D
:10534000BBF1000FBDBF3A499AF80030096800254B
:10535000BEBF5B189D782D0922B904F108058AB9F2
:10536000114612E0384B1978012905D15978A94224
:105370000CBF1D46002500E00025344B1D60002DAC
:10538000EBD122E1314B19680231314B0F209A5C8D
:105390000391029204F07CFB029A0346039928468B
:1053A00009E02C4B0F209D5C04F072FB2A462A4931
:1053B000034604F10800FFF7B1FA09F0080109F00B
:1053C000030201F0FF0509F00403A1B1002B67D12E
:1053D000224B1B88ADF81430531E012B06D81849F8
:1053E0000B6813F8010B8DF815000B601C490023A6
:1053F0008A5C05A950E0002B46D0BBF1000FBDBF71
:105400000B499AF8003009682B46B8BF5B180E4963
:10541000B8BF9D780878B8BF05F00F03012823D1E5
:105420004D789D420CBF0D4600251EE04D25002005
:10543000C00A0020B80A0020D00A0020C42800209A
:10544000BC0A0020C6DB2000F71F0020B40A0020A1
:10545000DFDB2000CADB2000CEDB2000C4DB200025
:10546000D0DB2000F61F00200025964B1D60002D8C
:1054700000F0AB80944B102013F8029004F008FB6E
:105480004A460346A91C07E0904B10209D5C04F09F
:10549000FFFA2A4603468E4904F11800FFF73EFA48
:1054A000009B009A18788B4900F128031370019B28
:1054B000002B53D00B681A7802F0F802F02A4DD175
:1054C0001122A2711A7802F0040502F0F302F03AF8
:1054D000EDB2032A7BD8DFE802F0020A1622B3F805
:1054E00001200533228533F8022C62852CE0B3F8C5
:1054F00001202285DA78A2F5805292B2120242F09F
:10550000F002628509E05A78A2F5805292B2120246
:1055100042F0F00222855A886285043314E05A78FA
:1055200002331209A2F5756292B2120242F0F00241
:10553000228513F8012C02F00F02A2F5756292B2D7
:10554000120242F0F00262850B6025B90B6833F855
:10555000022BE2850B60009B303018705E4A0B68AE
:1055600012689B1A8AF8003067B904F0A1F95B4B06
:105570001B78C01A009B1B7818442838031223712B
:10558000607104E0A7F128031A1222716371A379F4
:10559000112B1CD1A388A38519E0412A40F08F80EC
:1055A0004A1CD2B28318224603F1280053F8045B48
:1055B000834242F8045BF9D1009B009A1B782931A1
:1055C00028338AF80010137001E0B14601E0B146BB
:1055D0000025AB4604F06CF99AF8002082426ED8A0
:1055E00004F066F93D4A11783D4A431A019313606D
:1055F000009B019A93F800A04FEACB039BB253445F
:10560000134440F21452934259D83CB1324B019AA0
:105610001B6804EB0A00194405F020FF002F36D068
:105620004EB1019B2F490AEB0302B82303FB081379
:1056300092B29A821A8485B3B82202FB08F32949F0
:105640002948CA18114697822231128C05F006FFAC
:10565000264C254E04F24C5514F8012C52B114F886
:10566000033C984506D114F8020C214606EBC00015
:1056700005F0F4FE7134AC42EED15FFA88F0FFF72A
:105680004FF8B9F1000F0BD0194B1F800DE0B9F1A5
:10569000000F05D0002DF7D111E0B9F1000F0ED1A8
:1056A000019B9A44124BA3F800A0124C236823B12B
:1056B000FFF7AEF823685B68984701F099FF07B0E1
:1056C000BDE8F08FB40A0020DFDB2000CADB200039
:1056D000CEDB2000BC0A0020C00A00204D2500209F
:1056E000C40A0020D00A0020C42800200420002082
:1056F000B0280020CC0A0020014B1868704700BF7A
:10570000B80A002037B5124B124D1C782B796A79F4
:10571000C4EB032313449BB2ADF80630BDF806304A
:105720002022184405F1080180B206F0A9FDBDF859
:10573000062004F1280192B2294406F0A1FD10B11F
:1057400040BA80B201E04FF6FF7003B030BD00BF39
:105750004E250020C4280020F8B52C4F2C4D97F87A
:1057600000E02C4C0EF1280C0CEB05035E780220B7
:10577000F600207007360021864242DB0CEB000366
:10578000EA18EB5C012B05D002D3632B06D014E0A2
:10579000013033E05278023210442FE001B1207022
:1057A00002F034FEB8B13B782278283313441D440C
:1057B0006B7813440233237025E003F0C003802B81
:1057C00004D0C02B09D0402B15D102E051B120707C
:1057D00008E001B120700120F8BD01B120702B7EDE
:1057E000FF2BF8D00EEB000228320221042001F03A
:1057F000AFFD0220F8BD537802331844C0B2012136
:10580000BAE701B120700020F8BD00BF4E2500208E
:10581000C428002054250020F0B5C578124A0D4454
:10582000EDB2D57083780F0A3B44DBB293704478B5
:105830009F4254700678167005D9601CC0B2507033
:1058400008B901361670C9B28D420CDA0133DBB2E9
:10585000054993703BB94B780133DBB24B7013B9F8
:105860000B7801330B70F0BDB828002010B5094C3F
:105870000146236803F11400FFF7CEFF064A2368B0
:1058800011781975517859759178D2789975DA75BA
:1058900010BD00BFE82D0020B828002008B501F099
:1058A00069F901F045FE06F080FD002319460F4A14
:1058B00022F813100133082BFAD1002319460C48A3
:1058C0001A183033B3F5F07F82F82510F8D1094B60
:1058D0004FF480621A800023194607481A182033B3
:1058E000B3F5A07F1182F9D108BD00BFD42F0020ED
:1058F000EC2D0020C4170020E82F0020F0B5344A1A
:10590000344F138801339BB2B3F5FA4F28BF4FF4DD
:1059100080531C0A44EA0324A4B20025EE1996F829
:1059200025E0BEF1000F02D0368AA642EAD030351B
:10593000B5F5F07FF2D11380264A002302F5F07608
:1059400092F8255085B1072D09D13BB192F8267008
:1059500093F82650AF4288BF134600E0134630321A
:10596000B242EDD10BB930E01346022283F8252074
:10597000194A1C82157859821D76557800F1100657
:105980005D769578D2789D764025DA76DD830022A3
:105990001D8401251A755A759A75DA759D8383F8E9
:1059A000272083F8265083F822200325102283F82D
:1059B000245083F823201D4602462C461068516867
:1059C000083203C4B2422546F7D11846F0BD00BFE5
:1059D000C4170020EC2D002050250020F8B5104EF3
:1059E0003578DDB10F4F05F127033C88A34202DB78
:1059F00000233B8011E00C4BA4F12802521B5919E3
:105A0000184605F0A1FD641BA4B23C80283C22127C
:105A100000F8242C00F8234C00233370F8BD00BF9D
:105A20004E250020B0280020EC280020074A002343
:105A300032F81310814204D1044A002122F81310D5
:105A400070470133082BF3D1704700BFD42F0020DB
:105A500004282DE9F74FA14E00F06B82A049A14D1B
:105A6000A14FA24A03283C680D6015608A4615D1F3
:105A700094F8253003F00F03032B08D1A38B002BE0
:105A800040F064869A4B08221A7000F054BD022B35
:105A900040F05C86002305F8073CABE302287AD18E
:105AA000944A00231370944A33801380934AD37826
:105AB0000133DBB2D37063B993780133DBB29370F7
:105AC0003BB953780133DBB2537013B91378013308
:105AD000137094F8253003F0FD02052A0DD194F8D7
